:020000040800F2
:10000000D806002045010008F91C00085D1500080D
:10001000F51C0008250E0008DB2A0008000000007F
:10002000000000000000000000000000ED1F0008BC
:100030000510000800000000C11D0008652100082F
:100040005F0100085F0100085F0100085F01000810
:100050005F0100085F0100085F0100085F01000800
:100060005F0100085F0100085F0100085F010008F0
:100070005F0100085F0100085F0100085F010008E0
:100080005F0100085F0100085F0100085F010008D0
:100090005F0100085F0100085F0100085F010008C0
:1000A0005F0100085F0100085F0100085F010008B0
:1000B0005F010008ED2100085F0100085F010008F2
:1000C0005F0100085F0100085F0100085F01000890
:1000D0005F0100086D230008712300085F0100081C
:1000E000091000085F0100085F0100085F010008B7
:1000F0005F0100085F0100085F0100085F01000860
:100100005F0100085F0100085F0100085F0100084F
:100110005F0100085F0100085F0100085F0100083F
:100120005F0100085F0100085F0100085F0100082F
:10013000DFF80CD000F064FC00480047C54C000814
:10014000D80600200648804706480047FEE7FEE73D
:10015000FEE7FEE7FEE7FEE7FEE7FEE7FEE7FEE777
:100160008D210008310100082DE9F0410024061B13
:10017000254671F1000605DA01240027D0EB0700BF
:1001800067EB0101161E73F1000605DA0027D2EBBA
:100190000702012567EB030300F034FB86460E4699
:1001A00017469C46AC4204D00025D0EB050E65EB0B
:1001B000010624B10020D2EB000760EB030C70466F
:1001C00031463A466346BDE8F081D2B201E000F81C
:1001D000012B491EFBD270470022F6E710B51346EB
:1001E0000A4604461946FFF7F0FF204610BD30B519
:1001F00004460020034600E05B1C934203D2E05C0F
:10020000CD5C401BF8D030BDF0B480EA0102D40FC1
:100210004200B2EB410F02D20246084611464A00A4
:1002200042D0C30DDDB2C1F3C752AD1A202D35DA6D
:10023000C1F3160141F4000204B15242C5F1200697
:1002400002FA06F12A411044B3EBD05F23D0C4B1C7
:10025000012DA0EBC35009DCF0BC4FF0004202EAD4
:10026000C352DBB200F5000000F027BB400000F1F4
:10027000807000EBC350A0F1807040EAD17049005B
:1002800009E0490841EAC071A0EBC35000F5000045
:10029000400800EBC350F0BC00F006BB61420122F5
:1002A00002EB4101001BF6E7F0BC704781F0004112
:1002B000AAE780F00040A7E780EA010210B502F04B
:1002C0000043400022D04A001FD0010E01EB126112
:1002D000C0F35600C2F3560240F4000042F400029C
:1002E000A0FB022000047F39140400D0401C50EA17
:1002F000124001D44000491EC2B20C0604EBD010DB
:10030000401C4008802A02D003E0002010BD20F0ED
:100310000100002900DA0020184310BD30B480EA43
:10032000010202F0004530F0004221F0004013D0FD
:1003300090B1C30DD40DC2F31601C0F31600E41A38
:1003400041F4000140F400027D34914201D3641C69
:1003500000E04900002C02DA30BC002070474FF466
:1003600000000023914201D3891A034340084FEA59
:100370004101F7D151B1914202D14FF0004105E066
:1003800002D24FF0010101E06FF0010103EBC45014
:10039000284430BC00F088BA2DE9FE4F804681EA3F
:1003A0000300C00F0C46009021F0004123F00045EF
:1003B000B8EB0200A94105D24046214690461C46B2
:1003C0000B46024623F00040104347D0270DC7F3E9
:1003D0000A00C3F30A510290401A019040286BDAD8
:1003E000C3F3130040F4801B0098924620B1002311
:1003F000D2EB030A63EB0B0B01985946C0F14002A4
:10040000504600F030FA06460D4650465946019ACD
:1004100000F038FA10EB08006141002487EA11521D
:1004200084EAE7731A4340D0009A62B3019A012A22
:100430004FEA075215DC001B61EB02014FF000424E
:1004400002EA0752CDE90042001C41F58011324614
:100450002B4600F06FFA03B0BDE8F08F404621460E
:10046000F9E7001B61EB0201001C41F58013001845
:100470005B412018A2F5001747EB030140EAD57055
:10048000B6196D4111E06D084FEA360645EAC075B0
:100490004FEA0752001B61EB0201001C41F580117D
:1004A00049084FEA30000019514132462B4603B04B
:1004B000BDE8F04F00F02FBA009801224000002361
:1004C000D0EB020263EBE073009821464FEAE07440
:1004D000B8EB000061EB0401E9E783F000435BE760
:1004E00081F0004158E72DE9FE4F81EA030404F052
:1004F000004421F0004100944FF0000B23F0004332
:1005000050EA01045ED052EA03045BD0C3F30A54FC
:10051000C1F30A552C44A4F2F3340194A0FB025415
:10052000C1F3130141F48011C3F3130343F48013A7
:1005300001FB024400FB034E840A970A44EA8154FB
:1005400047EA8357A4FB076802958D0A05FB0785D8
:100550004FEA932C04FB0C542705029D4FEA0658E2
:1005600047EA1637B5EB08056EEB070C870E920EBF
:1005700047EA811742EA8312A7FB0201B6EB0B019F
:1005800064EB00042B0D43EA0C335E1844EB1C5063
:10059000DA465146E7FB0201C5F313044FEA0B3379
:1005A00043EA14534FEA0432019C43EA0603A4F1E0
:1005B0000C040294009CCDE900B400F0BBF903B038
:1005C000BDE8F08F00200146F9E72DE9F04D81EA02
:1005D000030404F0004B21F0004514464FF0000ADC
:1005E00023F0004150EA050220D054EA01021DD058
:1005F000C5F30A570246C5F31303C1F31300C1F351
:100600000A5640F4801543F48013A7EB0608101B2C
:10061000D64608F2FD3873EB050002D308F1010855
:1006200001E092185B41B8F1000F03DA00200146A7
:10063000BDE8F08D00204FF48011064684460EE0A0
:10064000171B73EB050705D3121B63EB050306436A
:100650004CEA010C49084FEA300092185B4150EA1D
:100660000107EDD152EA030012D082EA040083EAC6
:100670000501084305D0101BAB4106D2012200231F
:1006800006E000224FF0004302E06FF00102531039
:100690001AEB06004CEB085110EB0A0041EB0B0182
:1006A000BDE8F04D00F037B9C10F80EAE0700844B2
:1006B000CA079623002100F000B9962300221146B4
:1006C00000F0FBB800F0004220F00040C10DC0F384
:1006D000160040F400007F2901DA002070479629B7
:1006E00003DCC1F19601C84001E096398840002A38
:1006F000F4D04042704720F00040C10DC0F3160016
:1007000040F400007F2901DA00207047962903DCBD
:10071000C1F19601C840704796398840704700F093
:10072000004230F000400AD0C10D01F56071C0F305
:10073000160042EA0151C2084007114370470020E9
:100740000146704730B5041E71F1000404DB4FF020
:100750000044404264EB0101141E73F1000405DB08
:100760001C464FF00043524263EB04038B4208BF28
:10077000824230BD30B5041E71F1000404DB4FF03D
:100780000044404264EB0101141E73F1000405DBD8
:100790001C464FF00043524263EB0403994208BFEA
:1007A000904230BD01F0004330B421F0004150EAE6
:1007B000010206D00A0DA2F56072C1F31301002AEE
:1007C00002DC30BC00207047440F44EAC104C10081
:1007D000E01830BC00EBC25000F066B8002801DB26
:1007E000C0F10040002901DBC1F1004181427047A6
:1007F000002801DBC0F10040002901DBC1F100410C
:10080000884270472DE9F05F0546002092469B46DE
:1008100088460646814640241BE028464146474616
:10082000224600F0FFF853465A46C01A914110D3B1
:1008300011461846224600F016F82D1A67EB0108FB
:100840004F4622460120002100F00DF817EB000969
:100850004E41201EA4F10104DFDC484631462A4601
:100860004346BDE8F09F202A04DB203A00FA02F15B
:10087000002070479140C2F1200320FA03F319438E
:1008800090407047202A06DBCB17203A41FA02F04D
:1008900043EAE07306E041FA02F3D040C2F12002DD
:1008A00091400843194670470029A8BF7047401C73
:1008B000490008BF20F00100704710B4B0FA80FC76
:1008C00000FA0CF050EA010404BF10BC704749B1B3
:1008D000CCF1200421FA04F411FA0CF118BF012123
:1008E00021430843A3EB0C01CB1D4FEA00614FEA03
:1008F000102042BF002010BC704700EBC3501044D2
:100900000029A4BF10BC7047401C490008BF20F05C
:10091000010010BC704710B5141E73F1000408DA12
:10092000401C41F1000192185B411A4301D120F0B3
:10093000010010BD2DE9F04D92469B4611B1B1FA70
:1009400081F202E0B0FA80F220329046FFF78BFF8E
:1009500004460F4640EA0A0041EA0B0153465A4654
:10096000084313D0114653EA010019D0C8F14002E0
:10097000504600F057F805460E4650465946424646
:10098000FFF771FF084305D0012004E020463946F7
:10099000BDE8F08D0020054346EAE0762C4337435E
:1009A0000A986305E40AA0EB08000022FD0A44EA65
:1009B00047540A3002D500200146E9E70105101925
:1009C0006941DDE9084500196941BDE8F04DA2E73C
:1009D00070B521F0004303430CD0C1F30A55002445
:1009E000D5EB040564EB0403D617AD1AB34102DB63
:1009F0000020014670BD201841EB025170BD00007F
:100A0000064C074D06E0E06840F0010394E807005B
:100A100098471034AC42F6D3FFF78EFBC87100083C
:100A2000E8710008202A04DB203A21FA02F00021B4
:100A3000704721FA02F3D040C2F1200291400843EE
:100A4000194670472DE9F04D00231A461B1A8A41BA
:100A500003DB00200146BDE8F08DC1F30A52C1F36B
:100A6000130141F480154FF0000BD10702D100189B
:100A70006D41521E0027044640F2FF11384601EB3B
:100A8000620A3E468046024600204FF48011FFF77E
:100A9000C9FFC2197141BB1846EB0100B4EB030C4E
:100AA00075EB000C04D3E41A65EB000517460E46FF
:100AB000241908F101006D4180463428E3DDF9195D
:100AC00046EB0600091BA84103D24FF0FF32134644
:100AD00001E0002213461BEB070046EB0A51BDE87C
:100AE000F04DFFF718BF000008B50121084601F0DE
:100AF00075F901214FF4037001F090F9F020ADF881
:100B0000000000208DF803006946074800F036FC1D
:100B10000120ADF8000000208DF80300694603486D
:100B200000F02CFC08BD000000080140000C014052
:100B300010B5FFF7D9FF00F001F810BD00B591B076
:100B40000121084601F04AF901214FF4037001F038
:100B500065F9414800F092F94048069040480790F6
:100B6000002008900520099000200A9080200B901A
:100B700040000C9080000D9020200E9000020F90FD
:100B80000020109006A9344800F01EFA01213248D6
:100B900000F068F90020019001208DF808008DF820
:100BA00009004FF4602003900020049005208DF888
:100BB000140001A929484C3800F07EF84FF4004099
:100BC00001F000F907230122042124484C3800F0E9
:100BD0009BF807230222052120484C3800F094F8A6
:100BE0000723032206211D484C3800F08DF8072307
:100BF0000422194619484C3800F086F807230522CC
:100C0000082116484C3800F07FF8012113484C3871
:100C100000F033F8012111484C3800F023F80F4858
:100C20004C3800F0CDF800BF0C484C3800F03AF8D2
:100C30000028F9D109484C3800F0D2F800BF074825
:100C40004C3800F025F80028F9D1012103484C3830
:100C500000F0BBF811B000BD080002404C24014078
:100C6000B401002021B1826842F00102826003E0F9
:100C7000826822F001028260704721B1826842F4EA
:100C80008072826003E0826822F480728260704722
:100C9000014600208A6802F004020AB1012000E047
:100CA00000207047014600208A6802F008020AB15D
:100CB000012000E00020704730B5024600200023EC
:100CC00050680F4C20400D790C6844EA05242043FD
:100CD000506090680B4C2040D1E902542C434D7970
:100CE00044EA450420439060D06A20F470000C7CF4
:100CF000641EE4B2234340EA0350D06230BD0000DA
:100D0000FFFEF0FFFDF7F1FFF0B504460D460020B1
:100D10000021092D11DDE068A5F10A0606EB460762
:100D2000072606FA07F18843A5F10A0606EB4606F0
:100D300003FA06F10843E0600CE0206905EB450783
:100D4000072606FA07F1884305EB450603FA06F184
:100D500008432061072A0FDA606B561E06EB8607F0
:100D60001F2606FA07F18843561E06EB860605FA8B
:100D700006F10843606322E00D2A0FDA206BD61FCC
:100D800006EB86071F2606FA07F18843D61F06EBF7
:100D9000860605FA06F10843206310E0E06AA2F136
:100DA0000D0606EB86071F2606FA07F18843A2F117
:100DB0000D0606EB860605FA06F10843E062F0BD73
:100DC000816841F008018160704721B1826842F476
:100DD000A002826003E0826822F4A0028260704771
:100DE000816841F0040181607047000008B505A0EA
:100DF00000680090022002F0F7FC6946042001F030
:100E000013F908BD03C0120208B505A000680090E0
:100E1000022002F0E9FC6946032001F005F908BD53
:100E200002C0150000BFFEE710B5002401200B49E9
:100E3000086011E04FF48061094800F073FB01285D
:100E400008D1601CC4B21E2002F0CEFC642C03DB6F
:100E5000012010BD0020FCE7ECE700009881214252
:100E6000000C014021B1026842F00102026004E07E
:100E700002684FF6FE731A400260704701684FF631
:100E8000FE72114001600021016041608160C1601B
:100E90004B49884208D14A490839496841F00F0155
:100EA000474A083A51608AE045491431884208D1DE
:100EB00043490839496841F0F001414A083A516014
:100EC0007DE03F492831884208D13D4908394968C9
:100ED00041F470613A4A083A516070E038493C3157
:100EE000884208D136490839496841F47041344A8A
:100EF000083A516063E032495031884208D13049A4
:100F00000839496841F470212D4A083A516056E089
:100F10002B496431884208D129490839496841F48C
:100F20007001274A083A516049E0254978318842E2
:100F300008D123490839496841F07061204A083ACC
:100F400051603CE01F49884206D1011F096841F009
:100F50000F01021F116032E01A491431884208D192
:100F60001849091F096841F0F001164A121F116063
:100F700025E014492831884208D11249091F09681F
:100F800041F470610F4A121F116018E00D493C31A5
:100F9000884208D10B49091F096841F47041094A88
:100FA000121F11600BE007495031884207D10549F3
:100FB000091F096841F47021024A121F116070472D
:100FC000080002400804024010B50022026847F6FB
:100FD000F0739A430C6A8B6823430C6923434C6972
:100FE00023438C692343CC6923434C6A23438C6A93
:100FF00023431A430260CB6843600B6883604B68ED
:10100000C36010BD7047000010B54FF4004000F001
:1010100037F900B30A2002F0E7FB4FF400416A48B9
:1010200000F080FA98B90120684908606849C1F861
:101030009C01FFF7E9FE00206449091D08604FF498
:101040007A7002F0D1FB01206149C1F89C014FF494
:10105000004000F00FF94FF4806000F011F9002813
:1010600039D00A2002F0C0FBFFF7DEFE00287DD158
:10107000584908705848007801282DD10020564959
:1010800008700121554801F0F8F800204F49086028
:10109000502002F0A9FB01204D49C1F89801C82059
:1010A00002F0A2FB0020494908604FF4967002F05C
:1010B0009BFB01204649C1F89801C82002F094FB2F
:1010C0000020424908604FF4966002F08DFB012039
:1010D0003F49C1F8980171E04148007808B9012002
:1010E00000E000203E49087008460078012825D11C
:1010F0000020364908604FF4FA7002F075FB0120B9
:101100003349C1F89801C82002F06EFB00202F4936
:101110000860C82002F068FB01202D49C1F8980141
:10112000C82002F061FB002028490860502002F02E
:101130005BFB01202649C1F898013FE000F057FF12
:10114000502002F051FB002020490860502002F09E
:101150004BFB01201E49C1F89801C82002F044FB56
:1011600000201A4908604FF4967000E014E002F085
:101170003BFB01201649C1F89801C82002F034FB5E
:101180000020124908604FF4487002F02DFB012046
:101190000F49C1F8980111E000200C49086042F2A3
:1011A000283002F021FB00200E49C1F88001012007
:1011B0000649086041F2883002F016FB4FF4806067
:1011C00000F058F810BD000000080140988121424D
:1011D00000802142000000200100002000040040A7
:1011E00059000020000021420EB500F0B9F901219C
:1011F000084600F013FE0F21002000F09FF84FF486
:101200000040019000208DF808000C208DF80900A6
:1012100001208DF80A0001A800F046F80A210120FB
:1012200000F08CF84FF4806001900C208DF80900DC
:1012300001A800F039F828208DF8000002208DF870
:10124000010003208DF8020001208DF8030068469C
:1012500000F054FD28208DF8000002208DF80100D8
:1012600000208DF8020001208DF80300684600F090
:1012700045FD0EBD0149086070470000140401409F
:10128000014600200022074B1B6803EA0102054BC0
:1012900014331B680B4013B10AB1012000E0002099
:1012A0007047000000040140002123498279002A90
:1012B0003AD00A46126803689A430B461A600A1D20
:1012C000126803689A430B1D1A60027911440A6878
:1012D00003681A430A60184A0832126803689A437E
:1012E000154B08331A601A1D126803689A43124B93
:1012F0000C331A604279102A0ED11A1F1268036843
:101300001A430D4B08331A601A1D126803681A43FA
:10131000094B0C331A600DE00749427911440A6801
:1013200003681A430A6005E0027911440A680368F9
:101330009A430A60704700000004014030B5002263
:101340008B071C0F0F2303FA04F20B4B8C1053F87E
:1013500024309343084C8D1044F8253023468C10DC
:1013600053F824308C07240F00FA04F42343024C72
:101370008D1044F8253030BD080001402DE9F041C2
:10138000024600250026002000230024002791F8B3
:1013900003C00CF00F0591F803C00CF0100CBCF169
:1013A000000F03D091F802C04CEA050591F800C087
:1013B000BCF1000F31D0146800202BE04FF0010C7D
:1013C0000CFA00F3B1F800C00CEA03069E4220D1EB
:1013D00083004FF00F0C0CFA03F7BC4305FA03FC33
:1013E0004CEA040491F803C0BCF1280F06D14FF079
:1013F000010C0CFA00FCC2F814C00AE091F803C01A
:10140000BCF1480F05D14FF0010C0CFA00FCC2F8FA
:1014100010C0401C0828D1D31460B1F800C0BCF142
:10142000FF0F34DD546800202EE000F1080C4FF06F
:10143000010808FA0CF3B1F800C00CEA03069E425A
:1014400021D183004FF00F0C0CFA03F7BC4305FACF
:1014500003FC4CEA040491F803C0BCF1280F05D149
:1014600000F1080C08FA0CF8C2F8148091F803C0D7
:10147000BCF1480F07D100F1080C4FF0010808FA41
:101480000CF8C2F81080401C0828CED35460BDE888
:10149000F0810000F0B50A46002300240021002559
:1014A00000F00046B6F1004F02D11D4EF16901E097
:1014B0001B4E7168C0F3034583B200F44016B6F5C5
:1014C000401F08D121F07061154E766826F07066D5
:1014D000134F7E6012E000F48016B6F5801F06D12F
:1014E000032606FA05F4A14341F0706106E0460DBB
:1014F000360103FA06F6B14341F0706122B1460DA0
:10150000360103FA06F6314300F00046B6F1004F0B
:1015100002D1034EF16101E0014E7160F0BD0000A7
:10152000000001400246002093680B400BB10120EF
:1015300000E000207047416170470161704710B5BD
:1015400002460B460020002104E05C5C0444E0B24B
:101550004C1CE1B2541E8C42F7DC10BD00BFFEE70C
:1015600008B501210C2000F059FC4FF40040ADF803
:10157000000048208DF8030069460748FFF7FEFE8B
:101580004FF48060ADF8000048208DF803006946F4
:101590000248FFF7F3FE08BD00080140000C0140BF
:1015A00008B501211C2000F039FC0121084600F09B
:1015B00035FC01218A48FFF76DFF4020ADF800009F
:1015C00010208DF8030003208DF80200694685483D
:1015D000FFF7D4FE8020ADF8000069468148FFF790
:1015E000CDFE0120ADF8000069467F48FFF7C6FE3A
:1015F0004FF40060ADF8000004208DF803000320D4
:101600008DF8020069467748FFF7B8FE2020ADF854
:10161000000010208DF8030003208DF802006946B9
:101620007048FFF7ABFE4FF48050ADF8000010207B
:101630008DF8030003208DF8020069466948FFF722
:101640009DFE1020ADF800008DF8030003208DF8FA
:10165000020069466348FFF791FE4FF40050ADF871
:10166000000010208DF8030003208DF80200694669
:101670005C48FFF783FE0820ADF8000010208DF8CD
:10168000030003208DF8020069465648FFF776FEF6
:101690004FF48040ADF8000010208DF803000320C7
:1016A0008DF8020069464F48FFF768FE4FF48050FE
:1016B000ADF8000010208DF8030003208DF8020023
:1016C00069464948FFF75AFE4FF40040ADF8000064
:1016D00010208DF8030003208DF802006946414870
:1016E000FFF74CFE4FF40060ADF8000010208DF8BD
:1016F000030003208DF8020069463B48FFF73EFED9
:101700004FF48070ADF8000010208DF80300032026
:101710008DF8020069463448FFF730FE4FF48060D0
:10172000ADF8000010208DF8030003208DF80200B2
:1017300069462D48FFF722FE4FF40070ADF8000017
:1017400010208DF8030003208DF80200694626481A
:10175000FFF714FE40212348FFF7EFFE80212148C8
:10176000FFF7EBFE01212048FFF7E5FE20211D4891
:10177000FFF7E1FE4FF480511A48FFF7DCFE10211D
:101780001848FFF7D8FE4FF400511648FFF7D3FE74
:1017900008211448FFF7CFFE4FF480411148FFF7AE
:1017A000CAFE4FF480511048FFF7C5FE4FF40041C8
:1017B0000C48FFF7C0FE4FF400610B48FFF7BBFE7B
:1017C0004FF480710848FFF7B6FE4FF48061064879
:1017D000FFF7B1FE4FF400710348FFF7ACFE08BD00
:1017E00000023000000C01400008014010B500204C
:1017F0000E4908600E48006820F0F0000C490860AF
:101800000846006840F03000086000200949C1F82F
:10181000A40100F011F801200449086000F00CF860
:1018200000200449C1F8A00110BD0000A0812142A0
:10183000040C01400080214210B5022001F0FAFFA3
:1018400010BD000008B50121082000F0E7FA4FF4B0
:101850004070ADF8000010208DF8030003208DF8D3
:10186000020069460448FFF789FD4FF440710248C1
:10187000FFF763FE08BD0000000C014010B500201A
:101880000E4908600E48006820F0F0000C4908601E
:101890000846006840F03000086001200949C1F89E
:1018A000A401FFF7C9FF012004490860FFF7C4FF46
:1018B00000200449C1F8A00110BD0000A081214210
:1018C000040C01400080214270B5054600241648F2
:1018D000006820F0F000144908600846006840F0F5
:1018E00080000860002614E0002010490860FFF71F
:1018F000A3FF01200E49C1F8A0016006040E0B48A9
:101900007C38006808B1601CC4B2FFF795FF701CFA
:10191000C6B2082EE8DB15B9FFF7B0FF01E0FFF70C
:1019200065FF204670BD0000040C0140A0812142EB
:101930000080214270B504461248006820F0F00093
:10194000104908600846006840F030000860002038
:101950000D490860002512E0E0090B49091D0860E7
:101960006006040E01200949C1F8A001FFF764FFD9
:10197000002005490860FFF75FFF681CC5B2082D0D
:10198000EADB70BD040C0140A081214200802142AD
:1019900010B50E48006820F0F0000C4908600846B9
:1019A000006840F0300008600120094908600949DA
:1019B000C1F8A001FFF740FF002005490860FFF7CC
:1019C0003BFF00200349C1F8A00110BD040C0140F9
:1019D000A48121420080214210B50E48006820F009
:1019E000F0000C4908600846006840F030000860CC
:1019F0000020094908600949C1F8A401FFF71CFF4C
:101A00000120054908600549C1F8A401FFF714FF4A
:101A100010BD0000040C0140A08121420080214241
:101A200010B500241448006820F0F0001249086046
:101A30000846006840F08000086001200F490860F7
:101A4000FFF7FAFE01200E49C1F8A001FFF7F4FEEE
:101A500007E0601CC4B2FA2C03DDFFF7BDFF0120D4
:101A600010BD0648803800680028F2D10349091FDC
:101A7000086000BFF4E70000040C0140A48121428B
:101A80000080214210B50121084600F0C7F901216C
:101A9000042000F0C3F9FFF7D5FE80216B2000F091
:101AA000D7F8642001F0A0FE00216B2000F0D0F8F0
:101AB000022000F08BF8002000F080F8322000F0C7
:101AC000AAF80021382000F0C3F800216A2000F0B5
:101AD000BFF80021232000F0BBF88021372000F060
:101AE000B7F8752000F013F80446682C0BD10121DB
:101AF0006B2000F0ADF800216C2000F0A9F8322036
:101B000000F089F801E0012010BD0020FCE770B56D
:101B10000446FFF73DFFD020FFF70CFFFFF780FFE3
:101B20002046FFF707FFFFF77BFFFFF731FFD120CC
:101B3000FFF700FFFFF774FF0020FFF7C5FE054623
:101B4000FFF74AFF284670BD2DE9F04106460F46D3
:101B500014461D46FFF71CFF002141EA4601C8B2AA
:101B6000FFF7E8FEFFF75CFF20B1FFF735FF01202C
:101B7000BDE8F0813846FFF7DDFEFFF751FFFFF7C4
:101B800007FF012101EB4601C8B2FFF7D3FEFFF7C3
:101B900047FF0DE0012C04D10020FFF795FE2870CF
:101BA00003E00120FFF790FE2870601EC4B26D1C98
:101BB000002CEFD1FFF710FF0020D9E710B5044645
:101BC000E006010E1C2000F043F810BD10B50446DD
:101BD000E006010E1B2000F03BF810BD70B5044676
:101BE0000025BC2C01DB012510E0622C01DB022565
:101BF0000CE02A2C01DB032508E0142C01DB042572
:101C000004E00A2C01DB052500E0062529461A2000
:101C100000F01EF870BD70B50446B4F57A7F01DDA2
:101C20004FF47A74042C00DA04244FF47A7090FB99
:101C3000F4F0401EC5B22946192000F009F8054607
:101C4000264604EBD671C1F34F00FFF7C7FF70BD06
:101C500070B505460C46FFF79BFED020FFF76AFEE5
:101C6000FFF7DEFE18B1FFF7B7FE012070BD284672
:101C7000FFF760FEFFF7D4FE2046FFF75BFEFFF79D
:101C8000CFFE18B1FFF7A8FE0120EFE7FFF7A4FE93
:101C90000020EBE72DE9F04105460E461746984631
:101CA000FFF776FE002141EA4501C8B2FFF742FE88
:101CB000FFF7B6FE20B1FFF78FFE0120BDE8F081EF
:101CC0003046FFF737FEFFF7ABFE00240CE018F8B4
:101CD0000400FFF72FFEFFF7A3FE18B1FFF77CFE0D
:101CE0000120EBE7601CC4B2BC42F0DBFFF774FEDE
:101CF0000020E3E700BFFEE77047000070B5002159
:101D000000230F22C47804B3154C246804F4E06463
:101D1000C4F5E064210AC1F10403CA40447804FA1E
:101D200003F184781440214309010E4C0678A15533
:101D3000047804F01F050124AC4005786D11AD0056
:101D400005F1E025C5F8004109E0047804F01F051D
:101D50000124AC40044D0678761145F8264070BD4C
:101D60000CED00E000E400E080E100E00249014306
:101D7000024A1160704700000000FA050CED00E017
:101D800010B5024600200C4B186820F003001043E9
:101D900018600A4B1B6843F00403084C23600129B8
:101DA00001D130BF00E020BF044B1B6823F00403C7
:101DB000024C236010BD00000070004010ED00E0F8
:101DC0007047000001460020034A506820F440405C
:101DD00008435060704700000010024029B1064AD5
:101DE00052690243044B5A6104E0034A5269824338
:101DF000014B5A61704700000010024029B1064AA9
:101E0000D2690243044BDA6104E0034AD269824397
:101E1000014BDA61704700000010024029B1064A08
:101E200092690243044B9A6104E0034A9269824337
:101E3000014B9A61704700000010024029B1064A28
:101E4000D2680243044BDA6004E0034AD26882435A
:101E5000014BDA60704700000010024030B50021ED
:101E60000022002400232D4D6D6805F00C0121B1E6
:101E7000042905D0082923D105E0294D056022E079
:101E8000274D05601FE0254D6D6805F47012234D48
:101E90006D6805F48034022505EB92421CB9214D92
:101EA000554305600BE01D4D6D6805F400351DB10F
:101EB0001C4D5543056002E0194D5543056002E095
:101EC000174D056000BF00BF144D6D6805F0F001AF
:101ED0000909154D6B5C0568DD4045600F4D6D6867
:101EE00005F4E061090A104D6B5C4568DD408560D2
:101EF0000A4D6D6805F46051C90A0B4D6B5C45686D
:101F0000DD40C560054D6D6805F44041890B074D06
:101F10006B5CC568B5FBF3F5056130BD0010024090
:101F200000127A0000093D00840000209400002087
:101F300010B501460022002300204A11012A02D1D7
:101F4000094C236806E0022A02D1074C236A01E00B
:101F5000054C636A01F01F02012494401C400CB13F
:101F6000012000E0002010BD00100240024840683F
:101F700000F00C0070470000001002401149096891
:101F800021F480310F4A11601146096821F4802143
:101F90001160B0F5803F03D0B0F5802F0ED106E080
:101FA0000849096841F48031064A116007E0054993
:101FB000096841F4A021034A116000E000BF00BF9E
:101FC0007047000000100240014908667047000099
:101FD0000000424201460020034A506820F00300FE
:101FE000084350607047000000100240704710B571
:101FF0004FF48030FFF7C2FF00BF3120FFF798FF9A
:102000000028FAD00120FFF7DFFF00BF3920FFF7DB
:102010008FFF0028FAD00220FFF7DCFF00BFFFF798
:10202000A5FF0828FBD110BD10B50246002000BF57
:102030000BE000BF064B1B8803F08003002BF9D098
:102040000B5C034C241D2380401C9042F1DB10BD2F
:102050000044004010B500F001F810BD0CB50020A0
:10206000019000903348006840F4803031490860A6
:1020700000BF3048006800F4003000900198401C18
:102080000190009818B90198B0F5A06FF1D12948D6
:10209000006800F4003010B10120009001E0002041
:1020A00000900098012843D12348006840F01000B8
:1020B000214908600846006820F0030008600846CF
:1020C000006840F0020008601A48406819494860FA
:1020D0000846406848600846406840F480604860B0
:1020E0000846406820F47C1048600846406840F488
:1020F000E81048600846006840F08070086000BF43
:102100000C48006800F000700028F9D009484068C9
:1021100020F00300074948600846406840F002008C
:10212000486000BF0348406800F00C000828F9D15F
:102130000CBD00000010024000200240042808D11D
:102140004FF0E021096941F004014FF0E0221161F4
:1021500007E04FF0E021096921F004014FF0E0228F
:1021600011617047704710B500214FF4FE70FFF702
:1021700065FE00F001F810BD10B501210807FFF75A
:102180003DFE01210846FFF7FBFD10BD10B51348C9
:10219000006840F001001149086008464068104995
:1021A00008400E494860084600680E4908400B493F
:1021B00008600846006820F48020086008464068EF
:1021C00020F4FE0048604FF41F008860FFF742FFD4
:1021D0004FF000600449086010BD0000001002408C
:1021E0000000FFF8FFFFF6FE08ED00E010B501214A
:1021F000064800F04EF840B10121044800F03AF8DA
:1022000003480078401C0249087010BD00040040DB
:10221000000000207FB505460C4601210220FFF793
:10222000EDFDADF80850ADF804400020ADF80A000F
:10223000ADF8060001A90E4800F046F8012211464B
:102240000B4800F037F81D208DF8000000208DF8B5
:10225000010003208DF8020001208DF8030068467C
:10226000FFF74CFD0121024800F007F87FBD000098
:1022700000040040CA430282704721B1028842F044
:102280000102028004E002884FF6FE731A400280C9
:10229000704730B50246002000230024158A05EA65
:1022A0000103958905EA010413B10CB1012000E096
:1022B000002030BD1AB183890B43838102E08389FA
:1022C0008B43838170470000002202881D4B984297
:1022D0000ED01D4B98420BD0B0F1804F08D01B4B55
:1022E000984205D01A4B984202D01A4B984204D11A
:1022F0004FF68F731A404B881A43174B984207D0FA
:10230000164B984204D04FF6FF431A40CB881A432D
:1023100002808B8883850B8803850A4B98420BD0FB
:10232000094B984208D00E4B984205D00D4B98426D
:1023300002D00D4B984201D10B7A03860123838290
:1023400070470000002C01400034014000040040B0
:1023500000080040000C0040001000400014004045
:102360000040014000440140004801407047000027
:102370002DE9F0418EB0FEA000680D90FDA103C9CB
:10238000CDE90B01FDA000680A90FDA0006809904E
:10239000FCA000680890FCA000680790FBA0006803
:1023A0000690FBA000680590FAA000680490FAA0CF
:1023B00000680390F9A000680290F9A000680190FD
:1023C000F8A000680090012640F22551F64800F080
:1023D000C3FA002875D00020F4490870F449087049
:1023E0000121F448FFF749FFEF4800F071FBC7B245
:1023F000F148F249096847540078062854D1EF485B
:102400000068062849DB0020EC490860EA4840786B
:10241000422826D1E848807818BBE7488079E84907
:102420000870E54880788DF83600E348C0788DF86C
:102430003700E14880798DF811009DF811009DF872
:1024400010100844C0B28DF81200142001F0CCF92D
:102450000DA90420FFF7E8FD04A90320FFF7E4FD20
:1024600012E0D54880788DF83600D348C0788DF8D2
:102470003700142001F0B8F90DA90420FFF7D4FDAE
:1024800008A90320FFF7D0FD002403E00020CA497B
:102490000855641C102CF9DB0026012E04D1C74816
:1024A0000068401CC5490860C34800780F285DD10A
:1024B000C24800680F2852DB0020C049086006248B
:1024C00008E03DE1BC48005DBE4909780844BD49CB
:1024D0000870641C0F2CF5DBB748C07BB94909783C
:1024E00088421DD1002405E0B349A01D085CB6490F
:1024F0000855641C0A2CF7DBAF4880788DF836004D
:10250000AD48C0788DF83700142001F06DF90DA9A1
:102510000420FFF789FD03A90320FFF785FD12E0E2
:10252000A54880788DF83600A348C0788DF837002C
:10253000142001F059F90DA90420FFF775FD09A930
:102540000320FFF771FD00209E490870002403E07E
:10255000002099490855641C102CF9DB0026012E37
:1025600004D196480068401C94490860924800785D
:10257000092862D191480068092857DB00208F495B
:102580000860062407E08C48005D8E4909780844FD
:102590008C490870641C092CF5DB8748407A89490E
:1025A0000978884236D184488079692832D11F2041
:1025B00086490870C22048707F48807888707E48BD
:1025C000C078C8707C48807908717B48C0794871B0
:1025D0007948007A887100250CE07748007A401E1F
:1025E00000EB400005EBC0007949095CE81D774A23
:1025F00011546D1C182DF0DB7449091D1C20FEF7C9
:102600009EFF7249C8772020FFF70EFD40217148D8
:10261000FEF793FF00206B490870002403E00020C0
:1026200065490855641C102CF9DB0026012E04D1E5
:1026300062480068401C614908605F4800780828CB
:102640007ED15E48006808287BDB00205B4908607B
:10265000062407E05848005D5A490978084459495A
:102660000870641C082CF5DB5348007A554909783A
:10267000884267D150488079662815D14E488078C5
:102680008DF836004C48C0788DF83700142001F0E2
:10269000ABF80DA90420FFF7C7FC01A90320FFF741
:1026A000C3FC0020464948704348807967285DD1C3
:1026B000414880788DF836003F48C0788DF8370063
:1026C000022001F091F8444944480068FDF7F4FD08
:1026D0008046FDF7F7FF00B2414908803E49414876
:1026E0000068FDF7E9FD8046FDF7ECFF00B23E49CA
:1026F000088039493D480068FDF7DEFD8046FDF75A
:10270000E1FF00B23A4908802B48C0793949487046
:1027100033484078887032480078C8703248407832
:1027200008713148007848713148407888713048E4
:102730000078C87108460078497808442D4902E0BD
:102740009EE092E072E0897808442A49C9780844FA
:10275000284909790844274949790844254989794C
:1027600008442449C9790844224945E057E000005B
:1027700006C2000027C2000069000000E0554500C5
:10278000E0888800E4888800E500E500E5E6CB0005
:1027900012345600640000006100610065006500AD
:1027A0006600660066666600004400400000002087
:1027B0000100002000040040C20200208000002030
:1027C0006C000020760000206E000020A202002095
:1027D0005C010020000C01400000204104000020AA
:1027E0006600002008000020680000200C00002087
:1027F0006A0000207700002008720C208DF8340059
:10280000142000F0F1FF0DA90420FFF70DFC1E4974
:102810000920FFF709FC40211C48FEF78EFE1C48EA
:102820008079682815D1FEF7EFFA12E01848807811
:102830008DF836001648C0788DF83700142000F067
:10284000D3FF0DA90420FFF7EFFB06A90320FFF734
:10285000EBFB00200F490870002403E000200C4926
:102860000855641C102CF9DB0026012E08D10A48FB
:102870000068401C0849086040210448FEF75BFEE0
:102880000EB0BDE8F081000077000020000C014090
:10289000C2020020760000208000002010B586B023
:1028A000044601210520FFF7B9FA01214804FFF78A
:1028B000A5FA0420ADF8140003208DF816001820A6
:1028C0008DF8170005A91C48FEF758FD0820ADF843
:1028D000140048208DF8170005A91748FEF74EFD93
:1028E00026208DF8000002208DF801008DF80200EE
:1028F00001208DF803006846FFF700FA01940020DC
:10290000ADF80800ADF80A00ADF80C00ADF8100005
:102910000C20ADF80E0001A9084800F06DF8002267
:1029200040F22551054800F041F80121034800F02C
:1029300007F806B010BD0000000801400044004048
:1029400021B1828942F40052828104E082894DF6ED
:10295000FF731A408281704770B50246002400233D
:102960000025002040F66A16B14200D100BFC1F335
:10297000421501F01F03012606FA03F3012D02D1CF
:102980009689334006E0022D02D1168A334001E0D9
:10299000968A33400C12012606FA04F41688344055
:1029A00013B10CB1012000E0002070BDF0B503466A
:1029B000002400260025002040F66A17B94200D105
:1029C00000BF1846C1F3421401F01F06012707FAA1
:1029D00006F5012C01D10C3004E0022C01D110309D
:1029E00000E014301AB107682F43076002E007685F
:1029F000AF430760F0BD00002DE9F04786B0054603
:102A00000E460024A24600BFA1460027B08900B1AF
:102A100000BF2F462C8A4CF6FF700440F088044318
:102A20002C82AC894EF6F3100440B08831890843FB
:102A3000718908430443AC81AC8A4FF6FF400440DF
:102A4000B0890443AC8201A8FFF708FA1F48874207
:102A500002D1DDF810A001E0DDF80CA0A88900F497
:102A6000004040B10AEBCA0000EB0A10316849008F
:102A7000B0FBF1F807E00AEBCA0000EB0A1031687E
:102A80008900B0FBF1F86420B8FBF0F004012009E4
:102A9000642101FB1089A88900F4004040B1322074
:102AA00000EBC900B0FBF1F000F00700044308E0C0
:102AB000322000EB09106421B0FBF1F000F00F00B0
:102AC00004432C8106B0BDE8F087000000380140C7
:102AD00001468888C0F30800704700BFFEE7000089
:102AE0000FB4054B10B503A9044A029800F09AF8F8
:102AF00010BC5DF814FB00003544000860000020A5
:102B0000490050EAC12018BF04204A0D18BF40F008
:102B1000010040F2FF72B2EB515F08BF40F00200CB
:102B2000012808BF052070472DE9F0414F1E00EB3A
:102B3000C7010446D1E9000115461E4637F00602DA
:102B40000DD02A463346FDF7CEFC7F1E04EBC703AB
:102B5000D3E90023FDF720FC37F00602F1D1022F64
:102B600025D0042F13D0062F18BFBDE8F0812A46C8
:102B70003346FDF7B8FCD4E90A23FDF70DFC2A46DD
:102B80003346FDF7B0FCD4E90823FDF705FC2A46DF
:102B90003346FDF7A8FCD4E90623FDF7FDFB2A46E2
:102BA0003346FDF7A0FCD4E90423FDF7F5FB2A46E4
:102BB0003346FDF798FCD4E90223FDF7EDFB2A46E6
:102BC0003346FDF790FCD4E90023BDE8F041FDF762
:102BD000E3BB0122FDF7FCBEFDF7DEBB002213467E
:102BE00010461146FDF7F1BC024A00201107FDF71F
:102BF000EFBE000001FDFFFF02E008C8121F08C180
:102C0000002AFAD170477047002001E001C1121F6D
:102C1000002AFBD17047000001490860704700009E
:102C2000980000202DE9FF4F8DB00F460546002685
:102C300006E025280BD0DDE90F1290476D1C761CAD
:102C400028780028F5D111B03046BDE8F08F002477
:102C5000A246A1460122EC4900E0044315F8013FD9
:102C6000203B02FA03F00842F7D128782A2810D036
:102C70006FF02F022878A0F13001092914D80AEB4F
:102C80008A0102EB410144F0020400EB010A6D1CD1
:102C9000F0E701CF5FEA000A03D544F40054CAF11B
:102CA000000A44F002046D1C28782E2817D115F86C
:102CB000010F44F004042A280ED06FF02F02287868
:102CC000A0F1300109290AD809EB890102EB410181
:102CD00000EB01096D1CF2E757F8049B6D1C287886
:102CE0006C280FD006DC4C2817D068280DD06A2835
:102CF00014D104E0742810D07A280FD10DE044F4E8
:102D000000140AE044F4801401E044F440146978AB
:102D1000814202D104F580146D1C6D1C2A786E2A44
:102D20001FD00CDC632A31D004DC002A8BD0582A57
:102D300011D1A3E0642A68D0692A0CD165E0732A16
:102D40002ED004DC6F2A73D0702A04D19BE0752A40
:102D50006FD0782A6ED01046DDE90F129047761CAE
:102D600050E1C4F30250022806D0032809D00428F9
:102D700001CF09D0066045E101CFF117C0E900613C
:102D800040E101CF06803DE106703BE117F8040BFE
:102D90008DF8000000208DF80100EB46012003E0D3
:102DA00057F804BB4FF0FF3061074FF0000102D429
:102DB0000DE008F10101884649450FDA8045F8DB4E
:102DC0001BF808100029F4D108E008F10101884639
:102DD0008142FADB1BF808100029F6D1DDE90F2348
:102DE000AAEB08008146214600F036F9304400EB9A
:102DF000080604E0DDE90F121BF8010B9047B8F15B
:102E00000108F7D221464846F7E00A21C4F30253ED
:102E10004FF0000B0891022B04D001CFC117032BF8
:102E200009D00AE0FF1D27F00707F7E8020108E0D4
:102E300032E01FE020E000B2C117042B01D140B204
:102E4000C117031E71F1000307DA4FF0000CD0EB3D
:102E50000C006CEB01012D2302E0230504D52B238C
:102E60008DF82430012303E0E30701D02023F7E7A6
:102E7000984658E00A2110E010210EE010204FF093
:102E8000000B08900CE010214FF0000B44F00404FC
:102E90004FF00809089103E008214FF0000B08915A
:102EA000C4F30253022B04D001CF0021032B06D020
:102EB00006E0FF1D27F00707F7E8020103E080B2F4
:102EC000042B00D1C0B24FF0000823072BD5702A85
:102ED00007D0DDF820C08CF0100C5CEA0B0C05D09C
:102EE0000EE040238DF82430012308E050EA01036E
:102EF00006D030238DF824308DF825200223984603
:102F0000DDF820C08CF0080C5CEA0B0C0BD150EA09
:102F1000010301D1630706D530238DF824304FF02B
:102F20000108A9F10109582A04D038A20B9208AA75
:102F30000A920BE03AA2F9E75B46089AFDF762FCB9
:102F40000B9B9B5C0A9A521E0A92137050EA010274
:102F5000F2D10A98ADEB000000F1200B600702D51A
:102F600024F4803401E04FF00109D94502DDA9EBDA
:102F70000B0000E0002000EB0B0141440890AAEB9D
:102F8000010AE00306D4DDE90F232146504600F094
:102F900063F806444FF0000908E009A911F8090098
:102FA000DDE90F12904709F10109761CC145F4DBF8
:102FB000E0030CD5DDE90F232146504600F04CF824
:102FC000064404E0DDE90F1230209047761C089992
:102FD000481E08900029F5DC08E00A980A99007854
:102FE000491C0A91DDE90F129047761CBBF10001E4
:102FF000ABF1010BF1DC21465046DDE90F2300F077
:1030000019F806446D1C1BE60928010030313233E3
:103010003435363738396162636465660000000014
:1030200030313233343536373839414243444546FE
:10303000000000002DE9F041044600251E46174619
:10304000880404D405E039462020B0476D1C641E76
:10305000F9D52846BDE8F0812DE9F0410446002568
:103060001E469046C80301D5302700E0202788047B
:1030700004D505E041463846B0476D1C641EF9D5BD
:103080002846BDE8F08100002DE9FE4F06460F46B8
:103090000025684601F0DCF9002442E056F82400DF
:1030A00057F82410A0EB010ABAF1000F01DB5146DA
:1030B00001E0CAF100010846FDF7F6FA83464FF039
:1030C0008F41FDF72BF980465DF824000021FDF7C4
:1030D00085FB16D05DF824104046FDF71FF98246A7
:1030E0004FF07E51FDF7E2F8814629F0004A0F4883
:1030F000416A5046FDF77CFB12D20120A0400543F7
:103100000EE00A48C1694046FDF768FB05D3074851
:10311000016A4046FDF76CFB02D20120A040054346
:10312000641C032CBADB2846BDE8FE8F68640008E7
:103130002DE9F04D8D4F21F0004A86B005460C4632
:10314000BA452ADBAAEB070028430AD08848824503
:1031500001DC1AD1CDB106B02846BDE8F04DFFF72D
:1031600038BD844A844B2846FDF7BDF907460E4614
:10317000824A834B28462146FDF7B5F906B03A4608
:103180003346BDE8F04DFDF707B90120FFF744FDD8
:1031900006B0BDE8F04DFFF721BD7A48824542DA1E
:1031A000BAF1795F0BDA2846FFF7AAFC042808BFBA
:1031B000FFF71AFD284606B02146BDE8F08D2A46E5
:1031C0000B461046FDF78FF9834602466E480E46C1
:1031D0000B4606217844FFF7A7FC5A463346FDF715
:1031E00082F9804669488A465A4633460421784423
:1031F000FFF79AFC5A463346FDF775F900223B4625
:10320000FDF7CAF802460B4640465146FDF7DDF988
:103210002A462346FDF767F906B02A462346BDE84D
:10322000F04DFDF7B9B8284624F0004100223D4694
:103230003B46FDF755F94FF0FF32FDF7C9FB064657
:10324000024653480F460B4606217844FFF76CFCB4
:1032500032463B46FDF747F9CDE900014D4832467D
:103260003B4604217844FFF75FFC32463B46FDF7BE
:103270003AF900222B46FDF78FF88346029130463B
:10328000394603F0B7F8804643480D46504517DCF1
:10329000DDE900015A46029BFDF797F942462B46AD
:1032A000FDF721F942462B46FDF776F80122FDF79E
:1032B0008FFB304A304BFDF710F9304A304B4CE071
:1032C0004FF0000A52460B464046FDF765F8CDE93F
:1032D000031052462B4610461946FDF704F93246B4
:1032E0003B46FDF7FDF8DDE90332FDF76EF90646D2
:1032F0000F46DDE900015A46029BFDF766F9834659
:103300000091012230463946FDF762FB194A1A4BFB
:10331000FDF7E6F806460F46012240462946FDF72E
:1033200057FB5A46009BFDF7DEF832463B46FDF759
:10333000D4F806460F46012250462946FDF748FBC1
:103340000E4DDFF858802A464346FDF7C9F832464D
:103350003B46FDF7C5F82A464346FDF7C1F8002C69
:10336000D8BF81F0004106B0BDE8F08D0000F03F0D
:103370000000F07F075C143326A6913C182D4454BE
:10338000FB21F93F0000E03FB03E0000C63E0000D8
:103390003A3E0000503E00003333EF3FFB21E93F4F
:1033A0002DE9F84F04460D4621F000400091734985
:1033B000814211DC7249884201DC06D12CB12046E1
:1033C0002946BDE8F84FFFF704BC6E48002DCCBF7E
:1033D0006D496E49BDE8F88F6D49814211DD6D4937
:1033E0008142D8BF4FF0FF366DDD20462946FFF7FA
:1033F00087FB042808BFFFF7F7FB20462946BDE8F6
:10340000F88F6549654F25F00045814233DD6449F9
:10341000814219DD002632464FF08043204629467E
:10342000FCF7BAFF80468A46012220462946FDF76E
:10343000CFFA00223B46FDF750F842465346FDF7CF
:10344000C4F804460D463EE001260022BA463B463B
:1034500020462946FCF7A0FF80460F46002253462F
:1034600020462946FDF739F842463B46FDF7ADF8C0
:1034700004460D4627E04B4981421BDDDFF828A1B9
:1034800002260022534620462946FDF72CF800224A
:103490003B46FCF781FF80460F46002253462046FC
:1034A0002946FDF71AF842463B46FDF78EF80446DA
:1034B0000D4608E0032622462B4600203B49FDF737
:1034C00084F804460D4622462B4610461946FDF761
:1034D0000AF88B46824602460B46FDF704F807467B
:1034E0000246334888460B4606217844FFF71CFB0A
:1034F00052465B46FCF7F7FF82462E488B463A461B
:10350000434605217844FFF70FFB3A464346FCF754
:10351000EAFF02460B46002E504659460CDAFCF7ED
:103520003BFF22462B46FCF7DEFF01B022462B462E
:10353000BDE8F04FFCF7D4BFFCF72EFF22462B4628
:10354000FCF7D1FF1C4A7A4402EBC603D3E90023FF
:10355000FCF7C3FF22462B46FCF7BFFF174A7A440D
:1035600002EBC603D3E90023FCF7BAFF009A002A56
:10357000B8BF81F00041BDE8F88F000000001044A2
:103580000000F07F182D4454FB21F93FFB21F9BFC7
:103590000000DC3F0000203E0000F33F0000F03F51
:1035A0000000E63F008003400000F83F0000F0BF4D
:1035B000523C0000103C0000AE3B0000763B000097
:1035C0002DE9F04D9446CCF1000423F000464CEA7E
:1035D0000404524F46EAD4749A46884621F00042C9
:1035E000BC4206D8454240EA050442EAD474BC42D3
:1035F00004D9BDE8F04D6246FFF7EEBAAAF1405596
:10360000A5F17F6555EA0C040BD0022404EAAA74E4
:10361000434DDFF810E144EAD87452EA000B04D0BD
:103620000CE0BDE8F04DFFF7BBBE002C14BF012C31
:10363000BDE8F08D022C30D0032C32D056EA0C0BB2
:103640000AD0BE4220D1BA4209D126F0804622F0EB
:1036500080423346114617E000291ADB25E0DFF8E7
:10366000C8B0FB44002C04BFDBE90001BDE8F08DCD
:10367000012C02BFDBE9000181F00041BDE8F08DC3
:10368000022C0AD0032C0CD0BA4212D1B8F1000F90
:103690000BDA23482549BDE8F08D28462449BDE8CA
:1036A000F08D28467146BDE8F08D1D482149BDE8E2
:1036B000F08D921B12153C2AC4BF19481D490EDC1F
:1036C000BAF1000FBEBF12F13C0F0020014606DB2D
:1036D0006246FCF77AFF21F00041FFF761FE002C03
:1036E00008BFBDE8F08D012C04BF81F00041BDE8AA
:1036F000F08D114A114B022C07D0FCF7EEFE2A4642
:10370000BDE8F04D0A4BFCF7E8BEFCF7E6FE2A46A2
:10371000BDE8F04D064BFCF7E3BE00000000F07F73
:10372000182D4454FB2109C00A3B0000FB21F9BFBE
:10373000FB210940FB21F93F075C143326A6A13C7D
:103740002DE9F0410446E07800F0C006E07800F092
:103750003F05607800F0010098B1EF102846E917A6
:1037600005EB5171C910A5EBC101491C01F0FF081F
:103770000B48006820B10A48414602683846904725
:1037800000BF607800F0080030B10548406818B10B
:10379000B011034A516888470020BDE8F08100005D
:1037A000A401002010B56FF00400FEF7C7FC0A4822
:1037B00000680A49B0FBF1F0094908700846007832
:1037C00000EB4001C1EBC0104FF6FF7101EAC000F1
:1037D0000449088010BD00001000002000127A008B
:1037E0005A0000205C0000200146114A12884A431A
:1037F0004FF0E0235A6100229A611A46126942F0A2
:1038000001021A6100BF4FF0E022106900F00102CE
:103810001AB100F48032002AF5D04FF0E02212698C
:1038200022F001024FF0E0231A6100229A617047F2
:103830005C0000200146114A12784A434FF0E02311
:103840005A6100229A611A46126942F001021A6115
:1038500000BF4FF0E022106900F001021AB100F43D
:103860008032002AF5D04FF0E022126922F00102E6
:103870004FF0E0231A6100229A6170475A0000203D
:1038800038B5044664B120208DF8000028208DF85A
:10389000010030208DF8020038208DF8030004E08C
:1038A000A32204216846FCF790FC6A46042140F6F6
:1038B0009E2002F04DFC02F037F838BD3EB50446BC
:1038C00002208DF80000CA208DF80100E3208DF859
:1038D000020009208DF803006A460421682002F0E6
:1038E00037FCA3208DF8000004F0400048B1C02050
:1038F0008DF80100C8208DF80200C2208DF8030069
:1039000006E0A3208DF801008DF802008DF8030079
:1039100004F4C07048B1C4208DF80400CC208DF8A8
:103920000500C6208DF8060006E0A3208DF80400EF
:103930008DF805008DF80600A3208DF807008DF89E
:1039400008008DF809006A460A2140F6A72002F017
:10395000FFFB04F0030018B120208DF8000002E006
:10396000D8208DF800006A46012140F6B62002F00A
:10397000EFFB04F0200018B1012000F0ADF802E0E8
:10398000002000F0A9F804F4C07008B304F48070BB
:1039900060B1B2208DF800008B208DF80100B620B8
:1039A0008DF802009B208DF803000BE0B0208DF80D
:1039B000000080208DF80100B4208DF802009020D6
:1039C0008DF803006A46042140F6A22002F0C0FBF5
:1039D00004F0010020B3F8208DF800006A460121B0
:1039E0004FF40B6002F0B4FBFA21072000F02CFC2E
:1039F000072000F0F3FB012000F013FC642000F02E
:103A0000F3FC4FF4FA7000F002FDC821304800F0DA
:103A1000A3FB282000F0BCFB0A2000F0CCFB08E050
:103A2000D8208DF800006A4601214FF40B6002F0A7
:103A30008FFB04F0020018B1D9208DF8000002E0DD
:103A4000D8208DF800006A46012140F23D7002F056
:103A50007FFB04F0040018B1012000F069F802E0D7
:103A6000002000F065F804F0100018B10120FFF705
:103A700007FF02E00020FFF703FF44F008001549AC
:103A8000488101F051FF00201249887304F0400082
:103A900018B10846807B801D887304F4C07020B183
:103AA0000C48807B801D0B49887304F0140020B102
:103AB0000848807B10300749887304F0030020B168
:103AC0000448807B001D0349887300203EBD000030
:103AD00009E3CA02A40100203EB504466CB10EA160
:103AE000D1E900208968CDE9002002916A460921C8
:103AF0004FF4976002F02CFB3EBD0AA2D2E9001001
:103B00009268CDE9010200916A4609214FF497605D
:103B100002F01EFBF0E70000B8AAB38DB4980D3593
:103B20005D000000B8AAAAAAB088C3C5C7000000FB
:103B300038B5044664B1C0208DF80000C2208DF86D
:103B40000100C4208DF80200C6208DF8030004E0B7
:103B50008B2204216846FCF738FB6A46042140F6B4
:103B6000982002F0F5FA01F0DFFE38BD10B5C82349
:103B70004FF48062024940F6F63001F069FD10BD55
:103B8000906400082DE9F04F8DB007468846154631
:103B90009946DDE9166B0024002030806B49887B54
:103BA0005A4605A901F020FE18B1601E0DB0BDE80F
:103BB000F08F6648807A00F01400002867D09DF8E6
:103BC000140000069DF8151040EA01409DF81610FB
:103BD00040EA01209DF81710084328609DF818005E
:103BE00000069DF8191040EA01409DF81A1040EABD
:103BF00001209DF81B10084368609DF81C0000061A
:103C00009DF81D1040EA01409DF81E1040EA012079
:103C10009DF81F100843A8609DF8200000069DF83D
:103C2000211040EA01409DF8221040EA01209DF851
:103C300023100843E86004F11000C4B2286800149F
:103C40000190686800140290A86800140390E86866
:103C50000014049001984043029901FB010003996C
:103C600001FB0100049901FB010ABAF1706F02DB4C
:103C7000BAF1885F05DD01F057FE00203080401E5C
:103C800094E7B6F9000040F48070308000BF2F4800
:103C9000807A00F0400020B305A9601C085C095D33
:103CA00040EA012000B2A8F8000005A9E01C095C68
:103CB00005AAA01C105C41EA002000B2A8F802008E
:103CC00005A9601D095C201D105C41EA002000B2BE
:103CD000A8F80400A01DC4B2B6F9000040F0080026
:103CE00030801A48408900F4C07008B305A9601CF0
:103CF000085C095D40EA012000B2388005A9E01C9B
:103D0000095C05AAA01C105C41EA002000B2788082
:103D100005A9601D095C201D105C41EA002000B26D
:103D2000B880A01DC4B2B6F9000040F07000308029
:103D30000648807A00F0030018B105A90819FFF7BA
:103D4000FFFC484601F016F900202FE7A4010020EF
:103D500070B588B0064601A801F0CEFABDF804009F
:103D60000021C90341EA5045C4034448007A00F0E9
:103D7000030056F8200005904048007A00F0040047
:103D800010B10598404205903C48007AC0F3C1004C
:103D900056F8200006903948007A00F0200010B153
:103DA0000698404206903548007AC0F3811056F8D4
:103DB000200007903148008900F4807010B1079806
:103DC000404207900598C117A0FB042301FB043172
:103DD00000FB0510810041EA927005900698C1171A
:103DE000A0FB042301FB043100FB0510810041EA24
:103DF000927006900798C117A0FB042301FB0431C1
:103E000000FB0510810041EA927007900598000EB2
:103E10008DF808000598000C8DF809000598000A37
:103E20008DF80A000598C0B28DF80B000698000EB8
:103E30008DF80C000698000C8DF80D000698000A0D
:103E40008DF80E000698C0B28DF80F000798000E8E
:103E50008DF810000798000C8DF811000798000AE3
:103E60008DF812000798C0B28DF8130002AA0C2139
:103E70004FF4257002F06CF908B070BDA401002069
:103E800030B585B0044616A207CA02AB07C3C82CDA
:103E900003DD4FF0FF3005B030BDC82090FBF4F0DB
:103EA000401E85B2280A8DF80000E8B28DF80100A6
:103EB0006A46022140F2162002F04AF910B14FF092
:103EC000FF30E8E702AA0C2140F6C12002F040F9D9
:103ED00010B14FF0FF30DEE7044884810020DAE7BC
:103EE000FEF2ABC4AAF1DFDFBBAFDFDFA40100202D
:103EF0001FB504464848007A00F0030054F820003B
:103F000001904548007A00F0040010B10198404249
:103F100001904148007AC0F3C10054F8200002909B
:103F20003D48007A00F0200010B102984042029013
:103F30003948007AC0F3811054F8200003903648C5
:103F4000008900F4807010B1039840420390334917
:103F5000019880FB0101800F40EA810001902F4908
:103F6000029880FB0110820042EA917002902B4976
:103F7000039880FB0110820042EA9170039001983F
:103F8000000E8DF800000198000C8DF801000198DA
:103F9000000A8DF802000198C0B28DF803006A464D
:103FA00004214FF4747002F0D3F818B14FF0FF30D1
:103FB00004B010BD0298000E8DF800000298000CAD
:103FC0008DF801000298000A8DF802000298C0B234
:103FD0008DF803006A4604214FF4757002F0B8F8BA
:103FE00010B14FF0FF30E3E70398000E8DF80000AA
:103FF0000398000C8DF801000398000A8DF8020068
:104000000398C0B28DF803006A4604214FF476701D
:1040100002F09EF8CCE70000A401002009E3CA02E8
:1040200010B586B0044647A00068039046A000681B
:10403000029046A00068019045A00068009004F03E
:10404000030003A9085C8DF8140003A8C4F3C101A0
:10405000405C8DF8150003A8C4F38111405C8DF815
:10406000160004F0030002A9085C8DF8100002A8F5
:10407000C4F3C101405C8DF8110002A8C4F38111A2
:10408000405C8DF8120005AA032140F2264002F0A0
:104090005FF818B14FF0FF3006B010BD04AA03213D
:1040A00040F22A4002F054F810B14FF0FF30F3E72D
:1040B000019805900098049004F0040058B19DF810
:1040C000140040F001008DF814009DF8100040F03D
:1040D00001008DF8100004F0200058B19DF8150083
:1040E00040F001008DF815009DF8110040F001002E
:1040F0008DF8110004F4807058B19DF8160040F05E
:1041000001008DF816009DF8120040F001008DF8B6
:10411000120005AA03214FF4886002F019F810B1CB
:104120004FF0FF30B8E704AA032140F2314002F01B
:104130000FF810B14FF0FF30AEE7064804810020C1
:10414000AAE700004CCD6C000CC92C003656760056
:1041500026466600A4010020F8B505460E464FF439
:104160007A7095FBF0F000FB06F4200E8DF800004D
:10417000200C8DF80100200A8DF80200E0B28DF8C5
:1041800003006A4604214FF4AE7001F0E1FFF8BD70
:1041900038B50446052094FBF0F084B220128DF867
:1041A0000000E0B28DF801006A4602214FF4AD70C4
:1041B00001F0CEFF38BD38B50446052094FBF0F081
:1041C00084B220128DF80000E0B28DF801006A463A
:1041D00002214FF4AC7001F0BBFF38BD38B5044686
:1041E0000020009004F0010020B19DF8000040F094
:1041F0003000009004F0020020B19DF8000040F073
:104200000C00009004F0040020B19DF8000040F084
:10421000030000906A4601214FF4A47001F098FF5A
:1042200038BD38B50446012C01DA012402E0042C23
:1042300000DD0424601EC0B200906A46012140F2F5
:104240004F1001F085FF38BD2DE9FC4706460F46AB
:1042500006F0070010B1B7F5C86F03DD4FF0FF306F
:10426000BDE8FC873846FCF728FA81465949FCF737
:1042700055F88046684601F019F89DF800000228BC
:1042800006D0042816D0082826D0102848D135E0BA
:104290004FF08D414046FCF70FF88146FCF72BFAB2
:1042A00084B24D494046FCF707F88146FCF723FAF3
:1042B00085B238E04FF08C414046FBF7FDFF814668
:1042C000FCF719FA84B245494046FBF7F5FF8146F1
:1042D000FCF711FA85B226E04FF08B414046FBF720
:1042E000EBFF8146FCF707FA84B23D494046FBF7F5
:1042F000E3FF8146FCF7FFF985B214E04FF08A41F5
:104300004046FBF7D9FF8146FCF7F5F984B2354901
:104310004046FBF7D1FF8146FCF7EDF985B202E09C
:104320004FF0FF309CE700BF20128DF80400E0B290
:104330008DF8050028128DF80600E8B28DF8070008
:1043400006F00100A0B101AA02214FF4EA7001F0C9
:10435000FFFE10B14FF0FF3082E70DF1060202219F
:104360004FF4927001F0F4FE10B14FF0FF3077E798
:1043700006F00200A0B101AA02214FF4EC7001F096
:10438000E7FE10B14FF0FF306AE70DF1060202219F
:104390004FF4947001F0DCFE10B14FF0FF305FE796
:1043A00006F00400A0B101AA02214FF4EE7001F062
:1043B000CFFE10B14FF0FF3052E70DF1060202219F
:1043C0004FF4967001F0C4FE10B14FF0FF3047E794
:1043D000002045E700004843000040460000C0457B
:1043E000000040450000C04438B50446052094FB59
:1043F000F0F085B228128DF80000E8B28DF80100C7
:104400006A4602214FF4EF7001F0A2FE38BD38B5C4
:104410000446052094FBF0F085B228128DF80000C8
:10442000E8B28DF801006A4602214FF4ED7001F008
:104430008FFE38BD00BF054A128802F04002002AF4
:10444000F9D0C2B2014B1B1D1A80704700380140E1
:104450007CB5054628494968087801AB04220D213E
:10446000FDF772FB08B107207CBD9DF80700C0F383
:1044700001109DF8041001F0E00140EAE1008DF820
:1044800000009DF80700C0F381009DF8051001F0C1
:10449000E00140EAE1008DF801009DF8070000F01E
:1044A00003009DF8061001F0E00140EAE1008DF8FC
:1044B000020000241CE01DF8040018B9002045F893
:1044C000240013E00D4845F8240006E055F82400C8
:1044D0000B49FBF7F1FE45F824001DF80400401ECF
:1044E000C0B20DF804000028F0D100BF601CC4B2B7
:1044F000032CE0DB0020B7E7240000207B14AE3E55
:104500001D5A843F2DE9F04F87B005460C46914671
:1045100001208DF8100000208DF81100FE4A12686D
:10452000917CFD4A5268107804AB0222FDF7B2FB81
:1045300020B14FF0FF3007B0BDE8F08FC820FFF783
:1045400053F900208DF81000F34A1268D17BF24A2B
:104550005268107804AB0122FDF79CFB10B14FF0BC
:10456000FF30E8E7EC4A12685179EB4A526810785C
:1045700004AB0122FDF78EFB10B14FF0FF30DAE7FC
:10458000E54A1268917CE44A5268107804AB012233
:10459000FDF780FB10B14FF0FF30CCE7DE4A126828
:1045A000D17DDD4A5268107804AB0122FDF772FB21
:1045B00010B14FF0FF30BEE7D74A12681179D64AE2
:1045C0005268107804AB0122FDF764FB10B14FF084
:1045D000FF30B0E70C208DF81000CF4A1268117937
:1045E000CD4A5268107804AB0122FDF753FB10B19D
:1045F0004FF0FF309FE70F20FFF7F6F8C648806ABC
:10460000407A8DF81000C44A12689178C24A526804
:10461000107804AB0122FDF73DFB10B14FF0FF30E5
:1046200089E7BD48806A007A8DF81000BA4A12689E
:104630005178B94A5268107804AB0122FDF72AFB81
:1046400010B14FF0FF3076E7B9F1000F07D0B24854
:10465000806A807A40F0E0008DF8100004E0AE48F7
:10466000806A807A8DF81000AB4A12689179AA4A64
:104670005268107804AB0122FDF70CFB10B14FF02B
:10468000FF3058E7B9F1000F07D0A348806AC07A1D
:1046900040F0E0008DF8100003E0A048C07A8DF8EB
:1046A00010009D4A1268D1799B4A5268107804AB79
:1046B0000122FDF7EFFA10B14FF0FF303BE7B9F1FF
:1046C000000F02D0C820FFF78FF840208DF81000AF
:1046D000914A12681179904A5268107804AB01220D
:1046E000FDF7D8FA10B14FF0FF3024E778208DF8AD
:1046F0001000894A12685179874A5268107804ABD1
:104700000122FDF7C7FA10B14FF0FF3013E78349DC
:104710008889FFF769F800208DF810007E4A12683A
:1047200051797D4A5268107804AB0122FDF7B2FA44
:1047300010B14FF0FF30FEE6774A1268917A764A60
:104740005268107804AB0222FDF7FEF910B14FF069
:10475000FF30F0E69DF811009DF8101040EA012BA3
:104760000C209BFBF0F0C6B20020A86068602860B7
:10477000A06060602060824665E0674A1268D17A76
:10478000654A5268107804AB0C22FDF7DDF910B1D0
:104790004FF0FF30CFE69DF811009DF8101040EA71
:1047A000012000B2ADF808009DF813009DF812102A
:1047B00040EA012000B2ADF80A009DF815009DF80E
:1047C000141040EA012000B2ADF80C00BDF9081049
:1047D000206808442060BDF90A10606808446060E1
:1047E000BDF90C10A0680844A0609DF817009DF862
:1047F000161040EA012000B2ADF800009DF8190043
:104800009DF8181040EA012000B2ADF802009DF8B2
:104810001B009DF81A1040EA012000B2ADF8040018
:10482000BDF90010286808442860BDF902106868C6
:1048300008446860BDF90410A8680844A8600AF13B
:10484000010000F0FF0AB24597DB3448D0F800C001
:104850002868C117090441EA104107046246002391
:104860003846FBF781FC32460023CDE90201FBF715
:104870007BFC28602948D0F800C06868C11709048B
:1048800041EA10410704624600233846FBF76CFCFE
:1048900032460023CDE90201FBF766FC68601F4841
:1048A000D0F800C0A868C117090441EA1041070404
:1048B000624600233846FBF757FC32460023CDE919
:1048C0000201FBF751FCA8601448D0F804C021682D
:1048D000C817000440EA11480F0462460023384616
:1048E0004146FBF741FC32460023CDE90201FBF7CC
:1048F0003BFC20600948D0F804C06068C117090477
:1049000041EA10410704624600233846FBF72CFCBD
:104910003246002304E00000240000206864000800
:10492000CDE90201FBF720FC60601148D0F804C01B
:10493000A068C117090441EA104107046246002338
:104940003846FBF711FC32460023CDE90201FBF7A4
:104950000BFCA060A068002804DDA068A0F58030F2
:10496000A06003E0A06800F58030A0600020E2E5D0
:104970006864000810B520216E48FCF7DEFD0320B6
:10498000FEF732FF012001F06DFC20216948FCF7A1
:10499000D2FD0320FEF728FF4FF480516548FCF755
:1049A000CCFD0320FEF720FF022001F05BFC4FF45A
:1049B00080516048FCF7BFFD0320FEF715FF102172
:1049C0005C48FCF7BAFD0320FEF70EFF032001F060
:1049D00049FC10215748FCF7AEFD0320FEF704FF09
:1049E0004FF400515348FCF7A8FD0320FEF7FCFEEE
:1049F000042001F037FC4FF400514E48FCF79BFDBA
:104A00000320FEF7F1FE08214A48FCF796FD03203B
:104A1000FEF7EAFE052001F025FC08214548FCF7D9
:104A20008AFD0320FEF7E0FE4FF480414148FCF789
:104A300084FD0320FEF7D8FE062001F013FC4FF49E
:104A400080413C48FCF777FD0320FEF7CDFE4FF494
:104A500080513948FCF771FD0320FEF7C5FE0720A1
:104A600001F000FC4FF480513348FCF764FD032053
:104A7000FEF7BAFE4FF400412E48FCF75EFD03201E
:104A8000FEF7B2FE082001F0EDFB4FF4004129488B
:104A9000FCF751FD0320FEF7A7FE4FF40061264806
:104AA000FCF74BFD0320FEF79FFE092001F0DAFB27
:104AB0004FF400612048FCF73EFD0320FEF794FE12
:104AC0004FF480711C48FCF738FD0320FEF78CFE84
:104AD0000A2001F0C7FB4FF480711748FCF72BFD4B
:104AE0000320FEF781FE4FF480611348FCF725FD9B
:104AF0000320FEF779FE0B2001F0B4FB4FF4806138
:104B00000D48FCF718FD0320FEF76EFE4FF4007110
:104B10000948FCF712FD0320FEF766FE0C2001F0A9
:104B2000A1FB4FF400710448FCF705FD0320FEF7DC
:104B30005BFE10BD000C0140000801402DE9FC5F48
:104B400006460F4600253D494968087801AB032217
:104B50000D21FCF7F9FF10B10720BDE8FC9F9DF87F
:104B6000040000F01F008DF804009DF8050000F01F
:104B70001F008DF805009DF8060000F01F008DF85D
:104B80000600002456E056F8240057F82410A0EB45
:104B9000010BBBF1000F01DB594601E0CBF1000135
:104BA0000846FBF781FD4FF08F410090FBF7B6FB05
:104BB000814601A8005D68B321490868FBF77DFDC7
:104BC000834659461F48FBF7A9FB804604E01E496F
:104BD0004046FBF771FB804601A8005D401EC0B255
:104BE00001A908550028F2D141464846FBF796FB3B
:104BF00083464FF07E51FBF759FB82462AF0004B6B
:104C00000F4881695846FBF7F3FD12D20120A040FE
:104C100005430EE00A4801694846FBF7DFFD05D36E
:104C2000074841694846FBF7E3FD02D20120A04056
:104C30000543641C032CA6DB28468EE724000020D5
:104C40006864000800B04C4554E3853F10B5044645
:104C5000204600F00FF80346E01C00F00BF843EA92
:104C6000C00083B2A01D00F005F843EA801083B2B3
:104C7000184610BD014691F90020002A01DD0020F0
:104C80001EE091F90020002A01DA042018E091F9D1
:104C90000120002A01DD012012E091F90120002A03
:104CA00001DA05200CE091F90220002A01DD022042
:104CB00006E091F90220002A01DA062000E0072030
:104CC0007047000088B090A0006807908FA000682F
:104CD000069000BF8EA103C9CDE904018EA103C9CE
:104CE000CDE9020100BF00BF00BF4FF4A060FDF797
:104CF0003DF84FF4E130FDF7D1FDFEF753FDFCF731
:104D00004FFCFCF72DFCFBF713FFFCF76DFAFCF7EB
:104D10006DF8FCF7B7FE00F079FA002080490860D2
:104D200002E01420FEF760FD00F070FA0028F8D1D0
:104D300001207B490860C820FEF756FD0020794914
:104D4000C1F898015020FEF74FFD0120744908601A
:104D5000C820FEF749FD00207249C1F89801502093
:104D6000FEF742FD01206E490860C820FEF73CFDB9
:104D7000012240F225516C48FDF718FE012240F255
:104D800025516A48FDF712FE01206949086000209C
:104D900068490870684908704FF4FA70FEF724FDFE
:104DA00041F61F4147F22F50FDF734FA00205C49CD
:104DB0000860A7E061480078142805DD00205F49FD
:104DC000087001205C4908705B480078012809D10F
:104DD000534908605349C1F89C0100215848FDF728
:104DE0004CFA30BF53480078012806D14C4908607E
:104DF0004C49C1F89C01FDF7B6F96420FEF7F4FCBC
:104E000050490889FBF759FC4FF08B410190FBF7A3
:104E100085FA8346FBF783FC06464FF066324A4B21
:104E2000FBF761FB04460022484BFBF75CFB804626
:104E3000FBF7B8FC82463A486C38006801282BD151
:104E400000203E4908705046FBF769FC0446404A82
:104E5000404BFBF78FFC17D25046FBF760FC044633
:104E60003D4A3E4BFBF786FC07D200202C490860E8
:104E700001202C49C1F89C0139E000202849086034
:104E80002849C1F89C0132E0012025490860002032
:104E90002449C1F89C012AE05046FBF740FC044637
:104EA0002F4A304BFBF74EFC1AD201201C490860F8
:104EB0005020FEF799FC00201A49C1F89C015020AF
:104EC000FEF792FC01201649091D08605020FEF7EC
:104ED0008BFC00201249091D08600120086006E0D3
:104EE00000200F49086001200E49C1F89C011E4AAC
:104EF0001E491F4800F078F810B96420FEF774FCD2
:104F0000FFF738FD56E7000002C0150002C00B0095
:104F100000000000000088000CC20001000000003A
:104F20009881214200802142003801400044004025
:104F300080012142590000200100002000000020D3
:104F400000040040B401002066660A4000000240F0
:104F5000F6285C8FC2F50E40C3F5285C8FC2104066
:104F6000D7A3703D0AD70D400C0000200800002098
:104F7000040000207047000070B50446002624F0AD
:104F80000104184890F8240008B1002070BD1548AD
:104F9000807A10B94FF0FF30F8E71248057C807A2C
:104FA0002040104908740846007CA04202D04FF00F
:104FB000FF3600E0002614B90A48007D18B1012030
:104FC00001F0D0F902E0002001F0CCF93CB100F092
:104FD000ABFC20B1034805744FF0FF30D6E73046F4
:104FE000D4E70000240000202DE9F04F99B00446DA
:104FF0000D4616464FF07E574FF000084FF000095F
:105000004FF0000A12A813A918AB0EAACDE90010A0
:1050100014A916A8FEF7B6FD18B1012019B0BDE815
:10502000F08FBDF84C0000F4807000287ED00E9800
:10503000FBF73AFB83464FF09D41FBF76FF90746BC
:105040000F98FBF731FB83464FF09D41FBF766F964
:1050500080461098FBF728FB83464FF09D41FBF7F5
:105060005DF981461198FBF71FFB83464FF09D4188
:10507000FBF754F9824639464FF08040FBF71CF9A4
:1050800049460590FBF718F9414607904FF040401C
:10509000FBF712F951460590FBF70EF906900799B8
:1050A000FBF7B2F88346FBF73AFBCDE90801FEF7C0
:1050B0003FF84FF06632544BCDE90A01FBF713FA83
:1050C000CDE90C01FBF76EFB206049464FF08040B4
:1050D000FBF7F2F849460290FBF7EEF841460490E0
:1050E0004FF04040FBF7E8F841460290FBF7E4F848
:1050F00003900499FBF7DAF883464FF07E51FBF7F3
:1051000083F80590FBF70BFBCDE9080139464FF01A
:105110008040FBF7D1F841460390FBF7CDF84946B4
:1051200004904FF08040FBF7C7F800E068E051467C
:105130000390FBF7C1F883460499FBF765F80590E7
:10514000FBF7EDFACDE90601DDE90823FEF738FAB1
:105150004FF066322C4BCDE90A01FBF7C4F9CDE9DB
:105160000C01FBF71FFB286051465046FBF7A4F8E3
:10517000494604904846FBF79FF841460390404655
:10518000FBF79AF8394601903846FBF795F80090FE
:105190000199FBF739F802900399FBF787F88346EA
:1051A0000499FBF783F80590FBF7B9FACDE90801FC
:1051B00051463846FBF780F8494604904046FBF7D5
:1051C0007BF803900499FBF71FF84FF0804105909E
:1051D000FBF772F88346FBF7A2FACDE90601DDE999
:1051E0000823FEF7EDF94FF06632074BCDE90A01CF
:1051F000FBF779F9CDE90C01FBF7D4FA306001E057
:1052000002200BE7002009E766A64C4070B5002499
:10521000FCF718FB00F024F9002840D1782000F0BA
:105220002FFFC4B20CB1012070BD7820FFF7A4FE9F
:10523000C4B20CB10220F7E7642000F0D3FEC4B280
:105240000CB10320F0E7FEF791FCC4B20CB10420CE
:10525000EAE71548FFF7FAFC0546FEF7E1FEC4B29F
:105260000CB10520E0E740F27310FEF727FBC4B253
:105270000CB10620D8E76420FEF702FEC4B20CB1E0
:105280000720D1E700F0A4FF04460CB10820CBE7CB
:10529000012000F0A3FDC4B21CB10920C4E70A201C
:1052A000C2E70020C0E7000050000020014611487E
:1052B000407A30B1012807D0022808D003280CD149
:1052C00008E0022008700BE00420087008E00820C5
:1052D000087005E01020087002E04FF0FF307047C2
:1052E00000BF0448C07C18B108784006000E087062
:1052F0000020F4E72400002001461348407A30B132
:10530000012808D002280AD0032810D10BE04FF45E
:10531000804008800EE041F69C7008800AE04FF45F
:105320008050088006E04FF40060088002E04FF0F3
:10533000FF30704700BF0448C07C10B1088840109F
:1053400008800020F5E70000240000200146024804
:10535000007C0870002070472400002001460F48A0
:10536000007A30B1012807D0022809D003280FD1D4
:105370000AE0FA2008800EE04FF4FA7008800AE094
:105380004FF47A70088006E04FF4FA60088002E07B
:105390000020088000BF00BF0020704724000020CC
:1053A00001460E48007A30B1012807D0022808D003
:1053B00003280CD108E00A4808600BE0094808609F
:1053C00008E00948086005E00848086002E04FF07E
:1053D000FF30704700BF0020FBE7000024000020E2
:1053E00000000343000083423333034233338341DD
:1053F00001461248C07A082817D2DFE800F01704E7
:10540000070A0D101318BC20088013E062200880E2
:1054100010E02A2008800DE0142008800AE00A200D
:10542000088007E00520088004E000BF00BF0020DE
:10543000088000BF00BF002070470000240000204B
:105440000146064890F8240010B14FF0FF30704735
:105450000248C08908800020F9E7000024000020ED
:105460001CB580208DF80000654A1268917C644A62
:10547000526810786B460122FCF70CFC10B14FF01B
:10548000FF301CBD6420FEF7AFF900208DF800004E
:105490005B4A1268917C5A4A526810786B46012226
:1054A000FCF7F8FB10B14FF0FF30EAE7544A1268FE
:1054B000917D534A526810786B460622FCF744FBF4
:1054C00010B14FF0FF30DCE79DF80500C007400F3A
:1054D0009DF8031001F0010140EA41009DF8011020
:1054E00001F0010140EA010494B1012C03D1012132
:1054F0004348C17431E0022C03D100214048C174FB
:105500002BE021463FA0FDF7EBFA4FF0FF30B8E764
:105510003B4A1268D1783A4A526810786B460122A9
:10552000FCF712FB10B14FF0FF30AAE79DF8000026
:1055300000F00F042CB93D48FDF7D2FA4FF0FF30D0
:105540009FE7042C06D13AA0FDF7CAFA01212C48A6
:10555000C17402E000212A48C174FF2128488172E9
:10556000FF2027490872FF2125484172C1724FF67A
:10557000FF71C181FF21017481740121017380F8E1
:105580002210002180F8231041750175163001604A
:1055900041608160163880F8241080F82510C1849D
:1055A0004FF4FA6000F062FC10B14FF0FF3068E792
:1055B000022000F02BFB10B14FF0FF3061E72A20F2
:1055C00000F0CEFC10B14FF0FF305AE7322000F06F
:1055D00009FD10B14FF0FF3053E70020FFF7CCFC7E
:1055E00010B14FF0FF304CE7002000F051FB10B13C
:1055F0004FF0FF3045E7002000F042FD002040E77B
:1056000024000020556E737570706F72746564208D
:10561000736F6674776172652070726F64756374FE
:10562000207265762025642E0A000000787100083B
:1056300048616C662073656E736974697669747904
:10564000207061727420666F756E642E0A0000000F
:105650002DE9F04385B005460E4690469946294807
:1056600090F8250020B14FF0FF3005B0BDE8F08381
:1056700016B94FF0FF30F8E7002423E0281B10286C
:1056800001DD102000E0281B87B232193946204680
:1056900000F05EFD10B14FF0FF30E6E701AA394699
:1056A000204600F001F910B14FF0FF30DDE730196E
:1056B0003A4601A9FAF79BFD10B16FF00100D4E75B
:1056C000E01984B2AC42D9DB4FEA28208DF8000003
:1056D00008F0FF008DF801000A4A1268917E094A1D
:1056E000526810786B460222FCF7D4FA10B14FF0E2
:1056F000FF30BAE70121034880F82510A0F8269072
:105700000020B2E72400002038B50446282C02DD32
:105710004FF0FF3038BDDCB9002000F0EBFB00207B
:105720008DF8000007208DF801002E4A1268917C48
:105730002C4A526810786B460222FCF7ABFA10B183
:105740004FF0FF30E6E70021264801750020E1E731
:10575000012000F0CFFB20208DF80000012C06D1A5
:1057600000208DF80100052000F0FAFB17E0052C61
:1057700006DC01208DF80100052000F0F1FB0EE0B1
:10578000142C06DC02208DF801000A2000F0E8FB52
:1057900005E003208DF80100142000F0E1FB9DF8E6
:1057A0000100072101EB8010C0B28DF801000D4A05
:1057B0001268917C0B4A526810786B460222FCF703
:1057C00069FA10B14FF0FF30A4E708210548817253
:1057D00000210173012101750020FFF7CDFB00209E
:1057E00098E7000024000020F8B504460F4616464E
:1057F0002C4890F8240010B94FF0FF30F8BD29482C
:10580000807A10B94FF0FF30F8E7264A1268917A93
:10581000244A526810786B460222FCF795F910B1C1
:105820004FF0FF30EAE79DF801009DF8001040EAD4
:105830000125A54203DA00203070401EDEE719483A
:1058400040684088B5EB600F17DD164A1268517C3E
:10585000144A526810786B460122FCF775F910B1B2
:105860004FF0FF30CAE79DF8000000F0100020B1B3
:1058700000F05AF86FF00100C0E7E2B2094B1B6874
:10588000D97A084B5B6818783B46FCF75DF910B194
:105890004FF0FF30B2E795FBF4F0401E307000206F
:1058A000ACE7000024000020F8B504460D4616467B
:1058B00016B94FF0FF30F8BD1A48807A10B94FF092
:1058C000FF30F8E720128DF80000E0B28DF80100FB
:1058D0009DF801002844134949684989884202DD3E
:1058E0004FF0FF30E7E70F4A1268117E0D4A526809
:1058F00010786B460222FCF7CDF910B14FF0FF3063
:10590000D9E7EAB2074B1B68597D064B5B681878EC
:105910003346FCF719F910B14FF0FF30CBE7002008
:10592000C9E700002400002008B57048807A10B94B
:105930004FF0FF3008BD002000906C4A1268D17B08
:105940006A4A526810786B460122FCF7A3F910B13D
:105950004FF0FF30EEE7654A12685179634A5268AA
:1059600010786B460122FCF795F910B14FF0FF302B
:10597000E0E75E4A126811795C4A526810786B461B
:105980000122FCF787F910B14FF0FF30D2E75748FA
:1059900090F82400002853D00C200090534A12683D
:1059A0001179524A526810786B460122FCF772F95D
:1059B00010B14FF0FF30BDE73220FDF715FFC020DA
:1059C00000904A48807A00F0010020B19DF8000064
:1059D00040F020000090454A12681179434A52680D
:1059E00010786B460122FCF755F910B14FF0FF30EB
:1059F000A0E73E48407C10B10220009001E000206A
:105A000000903A4A1268D17B384A526810786B4647
:105A10000122FCF73FF910B14FF0FF308AE7002078
:105A20000090324A12685179304A526810786B46B9
:105A30000122FCF72FF9002855D04FF0FF3079E70D
:105A400004200090294A12681179284A5268107877
:105A50006B460122FCF71EF910B14FF0FF3069E7E9
:105A60002248807C20B92148807A00F0010010B9DA
:105A70004020009001E0602000901C4A12681179DB
:105A80001A4A526810786B460122FCF703F910B1EC
:105A90004FF0FF304EE73220FDF7A6FE1348407C62
:105AA00010B10120009001E0002000900F4A126820
:105AB000D17B0E4A526810786B460122FCF7EAF857
:105AC00010B14FF0FF3035E7084A12685179074AA4
:105AD00052681078054B10330122FCF7DBF810B147
