:020000040800F2
:10000000500A002045010008510B0008D10A0008E1
:100010004D0B0008F502000847140008000000001E
:10002000000000000000000000000000270E000893
:100030001703000800000000D90B0008910F00080A
:100040005F0100085F0100085F0100085F01000810
:100050005F0100085F0100085F0100085F01000800
:100060005F0100085F0100085F0100085F010008F0
:100070005F0100085F0100085F0100085F010008E0
:100080005F0100085F0100085F0100085F010008D0
:100090005F0100085F0100085F0100085F010008C0
:1000A0005F0100085F0100085F0100085F010008B0
:1000B0005F0100085F0100085F0100085F010008A0
:1000C0005F0100085F0100085F0100085F01000890
:1000D0005F010008F50F0008751100085F010008B6
:1000E0005F0100085F0100085F0100085F01000870
:1000F0005F0100085F0100085F0100085F01000860
:100100005F0100085F0100085F0100085F0100084F
:100110005F0100085F0100085F0100085F0100083F
:100120005F0100085F0100085F0100085F0100082F
:10013000DFF80CD000F018F800480047F914000868
:10014000500A00200648804706480047FEE7FEE7C1
:10015000FEE7FEE7FEE7FEE7FEE7FEE7FEE7FEE777
:10016000950F000831010008064C074D06E0E068D5
:1001700040F0010394E8070098471034AC42F6D3EE
:10018000FFF7DAFFFC1500081C16000870B50546DD
:100190000E461446062010490870C22048702046BA
:1001A000E11704EB1161090A0B4A91702046E1172F
:1001B00004EB11610912A4EB0121D1701046057105
:1001C0004671007911464979084411468871072023
:1001D00000F076F870BD0000DD05002070B5054622
:1001E0000E460A2D4ED2DFE805F005060708090A7B
:1001F0004D4D4D0B47E046E045E044E043E042E032
:100200000F222249224800F073FD002407E01F4915
:1002100004F10800085C1F490855601C84B2072CD3
:10022000F5DB1D480078401E84B2F0791949085565
:100230000846015D154A04F1080011540F221349C4
:10024000134800F069FD0F221049114800F050FDDD
:1002500000240AE00F48015D0C4A04F10800105C1C
:10026000814200D003E0601C84B2072CF2DB00BFA7
:10027000072C03DB02200949087002E0042007492B
:10028000087000E000BF00BF70BD00004106002004
:1002900000400008180000201F0000202D00002052
:1002A00010B50446022005490870C0204870084671
:1002B0008470032000F004F810BD0000DD0500206C
:1002C00070B505460E460024022001F0EFF800BF8D
:1002D0000BE000BF0648008800F080000028F9D03D
:1002E000305D0349091D0880641CAC42F1DB70BD20
:1002F0000044004000BFFEE730B505460C462146ED
:10030000284600F0D6FB691E615C884201D10120BD
:1003100030BD0020FCE7704730B5044604254FF49B
:10032000302000F06FF80546042D17D10C48006905
:1003300040F002000A49086108464461006940F043
:10034000400008614FF4302000F05CF80546044896
:10035000006941F6FD71084001490861284630BD39
:100360000020024004200B49C96801F0010109B1D5
:1003700001200EE00749C96801F0040109B102201B
:1003800007E00449C96801F0100109B1032000E049
:1003900004207047002002400348006940F08000BC
:1003A00001490861704700000020024070B5044612
:1003B0000D460426F00200F025F80646042E11D161
:1003C0000948006940F00100074908612580F002F2
:1003D00000F018F806460448006941F6FE7108402E
:1003E00001490861304670BD0020024002480349BF
:1003F0004860034848607047230167450020024079
:10040000AB89EFCD00B502460423FFF7ABFF0346EF
:1004100003E0FFF7A7FF0346521E012B01D1002A7C
:10042000F7D102B90523184600BD000070B5F748A2
:10043000007802286FD1F648057845F0800601461D
:10044000F4480078FFF758FF20B90321304600F048
:10045000EBFCD0E1A5F160000B286FD2DFE800F0E3
:100460000614476F9AD2F0EFEEEDEC00E8484078C2
:10047000552804D00121304600F0D6FC03E0AA2123
:10048000284600F0D1FCB5E100240AE0E049601CF8
:10049000085CE14908550846005DE0490855601CC4
:1004A000C4B2082CF2DB0F22DC49DD4800F034FC3A
:1004B0000F22DA49DA4800F01BFC002408E0D64895
:1004C000005DD649095D884200D003E0601CC4B2DB
:1004D000082CF4DB00BF082C04DA0121304600F0C0
:1004E000A3FC03E00021284600F09EFC82E10F22DD
:1004F000CA49CB4800F0FCFB002405E0C748005D7A
:10050000C5490855601CC4B2082CF7DB6220C549F8
:100510000870002406E078E1BF48015DC14A601C14
:100520001154C4B2082CF7DBBE490A2000F0C1FA0E
:10053000BC4948720A2000F089FC5BE159E10F22B6
:10054000B649B74800F0D4FB002407E0B34904F1F2
:100550000800085CB4490855601CC4B2072CF5DBE0
:100560006320B049087007204870002406E0AE48B8
:10057000015DAC4AA01C1154601CC4B2072CF6DB10
:10058000A8490A2000F095FAA64948720A2000F00E
:100590005DFC2FE19E48407818B19D4840780728BF
:1005A00004DD0121304600F03FFC2AE00F229B4988
:1005B0009B4800F09DFB002407E0984904F10800E7
:1005C000085C99490855601CC4B2072CF5DB9048BB
:1005D0004078401EC4B29448005D70B9002128469E
:1005E00000F022FC0920FFF75BFE894840788F4924
:1005F000087001208E49087003E00421304600F0A5
:1006000013FCF7E08A48007820B9E021304600F07A
:100610000BFC2EE086480078012804D1E121304609
:1006200000F002FC25E082480078042809D1E2218C
:10063000304600F0F9FB1CE0B0E06BE066E0B8E0AB
:1006400018E07B48007802280BD178480078401EDB
:10065000754A115C284600F0E7FB002074490870D9
:1006600007E074480178304600F0DEFB0020704956
:100670000870BFE06648407818B1654840780728A0
:1006800004DD0121304600F0CFFB3EE00F2263493C
:10069000634800F02DFB002407E0604904F10800E6
:1006A000085C61490855601CC4B2072CF5DB58484A
:1006B00040785E49087008460078401E5A49085C38
:1006C000F8B15A480078401E0B461A5C50484178F1
:1006D0006820FFF75BFD002154480078401E524A15
:1006E00011544E4A51480078C01D11540F224B49F5
:1006F0004B4800F011FB4D480178662000F094FB58
:1007000003E00521304600F08FFB73E01520FFF772
:10071000C7FD6FE03E48407818B13D484078072853
:1007200004DD0121304600F07FFB36E03848407898
:10073000401EC4B23C48005D58B307203E490870D3
:10074000C22048703849085DC11700EB11610912D9
:10075000394A91703449085DC11700EB11610912E3
:10076000A0EB0121D170692011460871284840781A
:10077000487127488078887108468079497908440B
:100780001146097908441146C8710820FFF798FD01
:1007900003E00521304600F047FB2BE0012027490C
:1007A00008701B494978481C1949491CFFF788FD06
:1007B00020E01748407818B115484078072804DD34
:1007C0000121304600F030FB12E011484078401E15
:1007D000C4B21548005D38B11348025D0C48417839
:1007E0002846FFF7D3FC03E00521304600F01CFB50
:1007F00000BF00BF00BF00200449087000F092F95C
:10080000052000F053FE00F097F970BD2000002095
:10081000B104002021000020340000204106002007
:100820000040000815050020180000201F000020CF
:100830002D0000202E000020DD0500202C000020CF
:1008400070B54D48007802287ED14C4800780128C8
:1008500020D16A204A4908704A480078441C002583
:1008600005E04848415D464A681C115485B2A542DE
:10087000F7DBA01C84B2E0B2414900F01AF9611E16
:100880003F4A5054E0B2114600F0E0FA00203B49E4
:1008900008706CE03B4840783B4908700846007897
:1008A000402806D041280AD0422809D043285CD1EC
:1008B00037E034498878C91CFFF790FC56E055E0D2
:1008C000304800780E2813D12E48807967280FD140
:1008D0002C49891D0920FFF70FFD20B90321E720CE
:1008E00000F0A2FA04E02749891D092000F0AEFAC1
:1008F00024480078212813D12248807969280FD113
:100900002049891D1C20FFF7F7FC20B90321E920AD
:1009100000F08AFA04E01B49891D1C2000F096FAB9
:1009200024E01848C07819490870164880780928CA
:1009300002D103201649087012488078142800D18B
:1009400000BF1048807800E014E015280CD10F4853
:10095000007820B90021682000F066FA04E00B4816
:100960000178E82000F060FA00E000BF00BF00203E
:100970000149087070BD0000220000202C000020FA
:100980001505002079050020240000202E000020FD
:100990002D0000202DE9F041024600250026002010
:1009A00000230024002791F803C00CF00F0591F8F4
:1009B00003C00CF0100CBCF1000F03D091F802C082
:1009C0004CEA050591F800C0BCF1000F31D0146865
:1009D00000202BE04FF0010C0CFA00F3B1F800C03E
:1009E0000CEA03069E4220D183004FF00F0C0CFA54
:1009F00003F7BC4305FA03FC4CEA040491F803C076
:100A0000BCF1280F06D14FF0010C0CFA00FCC2F823
:100A100014C00AE091F803C0BCF1480F05D14FF0B3
:100A2000010C0CFA00FCC2F810C0401C0828D1D3FD
:100A30001460B1F800C0BCF1FF0F34DD5468002031
:100A40002EE000F1080C4FF0010808FA0CF3B1F8A1
:100A500000C00CEA03069E4221D183004FF00F0C28
:100A60000CFA03F7BC4305FA03FC4CEA040491F8C2
:100A700003C0BCF1280F05D100F1080C08FA0CF8EE
:100A8000C2F8148091F803C0BCF1480F07D100F1FF
:100A9000080C4FF0010808FA0CF8C2F81080401C4E
:100AA0000828CED35460BDE8F081416170470161F0
:100AB000704710B502460B460020002104E05C5C44
:100AC0000444E0B24C1CE1B2541E8C42F7DC10BD71
:100AD00000BFFEE708B50121102000F08FF84FF4A9
:100AE0000050ADF8000010208DF8030003208DF8B1
:100AF000020069460A48FFF74DFF4FF400510848CD
:100B0000FFF7D5FF4FF48040ADF800006946044878
:100B1000FFF740FF4FF480410148FFF7C8FF08BDD1
:100B20000010014010B54FF400510248FFF7BFFF1D
:100B300010BD00000010014010B54FF400510248F4
:100B4000FFF7B3FF10BD00000010014000BFFEE73B
:100B50007047000070B5002100230F22C47804B351
:100B6000154C246804F4E064C4F5E064210AC1F182
:100B70000403CA40447804FA03F184781440214302
:100B800009010E4C0678A155047804F01F050124D4
:100B9000AC4005786D11AD0005F1E025C5F80041C8
:100BA00009E0047804F01F050124AC40044D0678E8
:100BB000761145F8264070BD0CED00E000E400E041
:100BC00080E100E002490143024A116070470000E1
:100BD0000000FA050CED00E07047000029B1064A5C
:100BE000D2690243044BDA6104E0034AD2698243CA
:100BF000014BDA61704700000010024029B1064A3B
:100C000092690243044B9A6104E0034A9269824369
:100C1000014B9A61704700000010024030B500217E
:100C20000022002400232D4D6D6805F00C0121B138
:100C3000042905D0082923D105E0294D056022E0CB
:100C4000274D05601FE0254D6D6805F47012234D9A
:100C50006D6805F48034022505EB92421CB9214DE4
:100C6000554305600BE01D4D6D6805F400351DB161
:100C70001C4D5543056002E0194D5543056002E0E7
:100C8000174D056000BF00BF144D6D6805F0F00101
:100C90000909154D6B5C0568DD4045600F4D6D68B9
:100CA00005F4E061090A104D6B5C4568DD40856024
:100CB0000A4D6D6805F46051C90A0B4D6B5C4568BF
:100CC000DD40C560054D6D6805F44041890B074D59
:100CD0006B5CC568B5FBF3F5056130BD00100240E3
:100CE00000127A0000093D003E0000204E00002066
:100CF00030B503460C461546002207E0184600F0C2
:100D000008F824F812009B1C501C82B2AA42F5DBA2
:100D100030BD0146088870472DE9F05F80468A465D
:100D20001746B8F1006F02D33348804501D3BDE8C0
:100D3000F09FFFF75BFBA8F1006B4FEA9B25CBF31D
:100D40004809C9F50074A74200DC3C464EE04FF06C
:100D5000006101EB85208A142849FFF7C9FF0026AE
:100D60000BE009EB0600254931F810004FF6FF7142
:100D7000884200D003E0701C86B2A642F1DB00BFBF
:100D8000A6421BDA4FF0006101EB8520FFF7C4FAA1
:100D9000002608E03AF8160006EB0901174A22F887
:100DA0001100701C86B2A642F4DB4FF0006101EB2B
:100DB00085208A14114900F023F804E022465146A8
:100DC000404600F01DF8A74200D110E06D1C4FF026
:100DD00000090AEB440A08EB4408381B87B2B7F550
:100DE000007F02DD4FF4007400E03C46AFE700BF37
:100DF000FFF7D2FA00BF9AE7000001089C0000202C
:100E00002DE9F04105460E461746002407E036F866
:100E100014102846FFF7CAFAAD1C601C84B2BC420D
:100E2000F5DBBDE8F081704738B504460D468DF816
:100E300000408DF8015069460320FFF73AFE8DF817
:100E400002006946032000F001F838BD70B5054680
:100E50000E460024022000F029FB00BF0BE000BF7B
:100E60000648008800F080000028F9D0305D034972
:100E7000091D0880641CAC42F1DB70BD00380140E4
:100E800010B500F001F810BD0CB5002001900090E5
:100E90003348006840F480303149086000BF304872
:100EA000006800F4003000900198401C0190009808
:100EB00018B90198B0F5A06FF1D12948006800F485
:100EC000003010B10120009001E000200090009857
:100ED000012843D12348006840F0100021490860F0
:100EE0000846006820F0030008600846006840F0EB
:100EF000020008601A48406819494860084640687E
:100F000048600846406840F4806048600846406891
:100F100020F47C1048600846406840F4E8104860BF
:100F20000846006840F08070086000BF0C48006808
:100F300000F000700028F9D00948406820F0030054
:100F4000074948600846406840F00200486000BF1A
:100F50000348406800F00C000828F9D10CBD0000DF
:100F60000010024000200240042808D14FF0E02188
:100F7000096941F004014FF0E022116107E04FF0F0
:100F8000E021096921F004014FF0E022116170476E
:100F90007047000010B51348006840F00100114987
:100FA000086008464068104908400E4948600846F5
:100FB00000680E4908400B4908600846006820F4A4
:100FC000802008600846406820F4FE0048604FF426
:100FD0001F008860FFF754FF4FF00060044908606D
:100FE00010BD0000001002400000FFF8FFFFF6FEF9
:100FF00008ED00E010B540F22551314800F062F9EB
:1010000000285BD02E4800F019FA2E492E4A12789B
:1010100088542D48007868BB01202C490870294865
:10102000007860380B281ED2DFE800F006150708AC
:101030000A0B0C0D0911190000BF00BF00BF00BF53
:1010400000BF00BF00BF03202149087011E0042049
:101050001F4908700DE00A201D49087009E00F20A3
:101060001B49087005E000201949087017490870ED
:1010700000BF00BF1548007801281FD11148007833
:101080006A2808D110480078012804D10D4840781A
:10109000C01C0F4908700E480078401E0A490978A4
:1010A000884206DC002008490870022007490870C1
:1010B00004E005480078401C0349087010BD00009A
:1010C00000380140B10400203D0000202000002035
:1010D0002100002010B586B00446012144F205002D
:1010E000FFF78CFD4FF40070ADF8140003208DF86D
:1010F000160018208DF8170005A91C48FFF74AFCB8
:101100004FF48060ADF8140048208DF8170005A951
:101110001648FFF73FFC25208DF8000001208DF8D0
:1011200001008DF802008DF803006846FFF712FDFC
:1011300001940020ADF80800ADF80A00ADF80C00ED
:10114000ADF810000C20ADF80E0001A9084800F021
:1011500009F9002240F22551054800F0DDF801218F
:10116000034800F0A3F806B010BD000000080140DD
:101170000038014010B540F225511E4800F0A2F899
:10118000002836D01B4800F059F91B491B4A127839
:1011900088541A480078A8B908460078022803DB6A
:1011A00008460078642805DD0020154908701549B7
:1011B000087007E010480078401C114908700120B1
:1011C000104908700F480078012812D10C480078A7
:1011D000401E0A490978884206DC00200749087049
:1011E00002200849087004E004480078401C0349C4
:1011F000087010BD00440040790500203C0000202C
:10120000230000202200002010B586B004460121F2
:101210000520FFF7F3FC01214804FFF7DFFC042061
:10122000ADF8140003208DF8160018208DF8170073
:1012300005A91C48FFF7AEFB0820ADF814004820B4
:101240008DF8170005A91748FFF7A4FB26208DF895
:10125000000002208DF801008DF8020001208DF8B9
:1012600003006846FFF776FC01940020ADF8080003
:10127000ADF80A00ADF80C00ADF810000C20ADF888
:101280000E0001A9084800F06DF8002240F2255137
:10129000054800F041F80121034800F007F806B0C6
:1012A00010BD0000000801400044004021B18289C7
:1012B00042F40052828104E082894DF6FF731A40A5
:1012C0008281704770B5024600240023002500206B
:1012D00040F66A16B14200D100BFC1F3421501F0D9
:1012E0001F03012606FA03F3012D02D1968933402C
:1012F00006E0022D02D1168A334001E0968A33407F
:101300000C12012606FA04F41688344013B10CB10D
:10131000012000E0002070BDF0B503460024002647
:101320000025002040F66A17B94200D100BF1846D8
:10133000C1F3421401F01F06012707FA06F5012C3C
:1013400001D10C3004E0022C01D1103000E0143047
:101350001AB107682F43076002E00768AF430760D0
:10136000F0BD00002DE9F04786B005460E4600248A
:10137000A24600BFA1460027B08900B100BF2F469A
:101380002C8A4CF6FF700440F08804432C82AC8910
:101390004EF6F3100440B088318908437189084340
:1013A0000443AC81AC8A4FF6FF400440B08904434B
:1013B000AC8201A8FFF732FC1F48874202D1DDF85A
:1013C00010A001E0DDF80CA0A88900F4004040B1B5
:1013D0000AEBCA0000EB0A1031684900B0FBF1F8D3
:1013E00007E00AEBCA0000EB0A1031688900B0FB85
:1013F000F1F86420B8FBF0F004012009642101FB3E
:101400001089A88900F4004040B1322000EBC900E7
:10141000B0FBF1F000F00700044308E0322000EBDD
:1014200009106421B0FBF1F000F00F0004432C819F
:1014300006B0BDE8F087000000380140014688880A
:10144000C0F30800704700BFFEE702E008C8121FA3
:1014500008C1002AFAD170477047002001E001C19D
:10146000121F002AFBD1704710B56FF00400FFF780
:101470007BFD0A4800680A49B0FBF1F00949087091
:101480000846007800EB4001C1EBC0104FF6FF7139
:1014900001EAC0000449088010BD000000000020DF
:1014A00000127A0014000020160000200146114AA4
:1014B00012884A434FF0E0235A6100229A611A468B
:1014C000126942F001021A6100BF4FF0E022106978
:1014D00000F001021AB100F48032002AF5D04FF07A
:1014E000E022126922F001024FF0E0231A6100228B
:1014F0009A6170471600002000244FF4A060FFF7A7
:1015000061FB4FF4E130FFF7E5FD4FF4E130FFF709
:101510007BFEFFF7A9FFFFF7DDFAFFF70DFB322097
:10152000FFF7C4FFFFF7FEFA0F222E492E48FFF700
:10153000DFFB00BF04E02B48005D2C490855641C0C
:10154000082CF8DB274904F10800085CFF2812D1B9
:10155000002408E00021234A04F10800115400206F
:1015600023490855641C072CF4DB0F221D491E4833
:10157000FFF7D2FB0AE0002406E01A4904F1080054
:10158000085C1B490855641C072CF6DB012240F25D
:1015900025511848FFF7C0FE012240F22551164898
:1015A000FFF7BAFE3220FFF781FFFFF7C5FA3220BE
:1015B000FFF77CFFFFF7B6FA0A20FFF777FFFFF788
:1015C000BBFA0A20FFF772FFFFF7ACFA0A20FFF719
:1015D0006DFFFFF7B1FA03E0FEF728FFFFF730F9E0
:1015E000FAE70000690000200040000834000020F5
:1015F0001800002000380140004400401C1600087C
:1016000000000020540000004A1400087016000872
:1016100054000020FC0900005A14000800A24A04EB
:101620000000000000000000010203040607080992
:1016300000000000000000000000000000000000AA
:10164000000000000000000000000000000000009A
:101650000000000000000000000000000000010287
:101660000304010203040607080902040608000037
:0400000508000131BD
:00000001FF
